{
  "_format": "hh-sol-artifact-1",
  "contractName": "PatientHealthRecord",
  "sourceName": "contracts/PatientHealthRecord.sol",
  "abi": [
    {
      "inputs": [
        {
          "internalType": "string",
          "name": "_newCaseSummary",
          "type": "string"
        },
        {
          "internalType": "uint256",
          "name": "patientID",
          "type": "uint256"
        }
      ],
      "name": "addCaseSummary",
      "outputs": [],
      "stateMutability": "nonpayable",
      "type": "function"
    },
    {
      "inputs": [
        {
          "internalType": "uint256",
          "name": "_dependencyID",
          "type": "uint256"
        },
        {
          "internalType": "string",
          "name": "_dependencyName",
          "type": "string"
        },
        {
          "internalType": "string",
          "name": "_dependencyRelationship",
          "type": "string"
        },
        {
          "internalType": "string",
          "name": "_dependencyAddress",
          "type": "string"
        },
        {
          "internalType": "uint256",
          "name": "_contactNumber",
          "type": "uint256"
        }
      ],
      "name": "addDependency",
      "outputs": [],
      "stateMutability": "nonpayable",
      "type": "function"
    },
    {
      "inputs": [
        {
          "internalType": "uint256",
          "name": "_id",
          "type": "uint256"
        },
        {
          "internalType": "string",
          "name": "_ipfsHash",
          "type": "string"
        },
        {
          "internalType": "string",
          "name": "_title",
          "type": "string"
        },
        {
          "internalType": "string",
          "name": "_description",
          "type": "string"
        },
        {
          "internalType": "uint256",
          "name": "_patientID",
          "type": "uint256"
        }
      ],
      "name": "addExaminationResult",
      "outputs": [],
      "stateMutability": "nonpayable",
      "type": "function"
    },
    {
      "inputs": [
        {
          "internalType": "uint256",
          "name": "_medicationID",
          "type": "uint256"
        },
        {
          "internalType": "string",
          "name": "_medicationName",
          "type": "string"
        },
        {
          "internalType": "string",
          "name": "_dosage",
          "type": "string"
        },
        {
          "internalType": "uint256",
          "name": "_price",
          "type": "uint256"
        }
      ],
      "name": "addMedication",
      "outputs": [],
      "stateMutability": "nonpayable",
      "type": "function"
    },
    {
      "inputs": [
        {
          "internalType": "uint256",
          "name": "_patientID",
          "type": "uint256"
        },
        {
          "internalType": "uint256",
          "name": "_medicineID",
          "type": "uint256"
        }
      ],
      "name": "addPrescription",
      "outputs": [],
      "stateMutability": "nonpayable",
      "type": "function"
    },
    {
      "inputs": [
        {
          "internalType": "address",
          "name": "",
          "type": "address"
        }
      ],
      "name": "addressToDoctor",
      "outputs": [
        {
          "internalType": "uint256",
          "name": "doctorID",
          "type": "uint256"
        },
        {
          "internalType": "string",
          "name": "doctorName",
          "type": "string"
        },
        {
          "internalType": "string",
          "name": "specialty",
          "type": "string"
        },
        {
          "internalType": "string",
          "name": "workplace",
          "type": "string"
        }
      ],
      "stateMutability": "view",
      "type": "function"
    },
    {
      "inputs": [
        {
          "internalType": "uint256",
          "name": "_doctorID",
          "type": "uint256"
        }
      ],
      "name": "approveDoctor",
      "outputs": [],
      "stateMutability": "nonpayable",
      "type": "function"
    },
    {
      "inputs": [],
      "name": "counterDoctorID",
      "outputs": [
        {
          "internalType": "uint256",
          "name": "",
          "type": "uint256"
        }
      ],
      "stateMutability": "view",
      "type": "function"
    },
    {
      "inputs": [],
      "name": "counterPatientID",
      "outputs": [
        {
          "internalType": "uint256",
          "name": "",
          "type": "uint256"
        }
      ],
      "stateMutability": "view",
      "type": "function"
    },
    {
      "inputs": [
        {
          "internalType": "uint256",
          "name": "",
          "type": "uint256"
        }
      ],
      "name": "dependencyIdToBool",
      "outputs": [
        {
          "internalType": "bool",
          "name": "",
          "type": "bool"
        }
      ],
      "stateMutability": "view",
      "type": "function"
    },
    {
      "inputs": [
        {
          "internalType": "uint256",
          "name": "",
          "type": "uint256"
        }
      ],
      "name": "examinationResultIdToBool",
      "outputs": [
        {
          "internalType": "bool",
          "name": "",
          "type": "bool"
        }
      ],
      "stateMutability": "view",
      "type": "function"
    },
    {
      "inputs": [
        {
          "internalType": "uint256",
          "name": "_doctorId",
          "type": "uint256"
        }
      ],
      "name": "getDoctorDetails",
      "outputs": [
        {
          "components": [
            {
              "internalType": "uint256",
              "name": "doctorID",
              "type": "uint256"
            },
            {
              "internalType": "string",
              "name": "doctorName",
              "type": "string"
            },
            {
              "internalType": "string",
              "name": "specialty",
              "type": "string"
            },
            {
              "internalType": "string",
              "name": "workplace",
              "type": "string"
            }
          ],
          "internalType": "struct PatientHealthRecord.Doctor",
          "name": "",
          "type": "tuple"
        }
      ],
      "stateMutability": "view",
      "type": "function"
    },
    {
      "inputs": [
        {
          "internalType": "uint256",
          "name": "",
          "type": "uint256"
        }
      ],
      "name": "idToDependency",
      "outputs": [
        {
          "internalType": "uint256",
          "name": "dependencyId",
          "type": "uint256"
        },
        {
          "internalType": "string",
          "name": "dependencyName",
          "type": "string"
        },
        {
          "internalType": "string",
          "name": "dependencyRelationship",
          "type": "string"
        },
        {
          "internalType": "string",
          "name": "dependencyAddress",
          "type": "string"
        },
        {
          "internalType": "uint256",
          "name": "contactNumber",
          "type": "uint256"
        }
      ],
      "stateMutability": "view",
      "type": "function"
    },
    {
      "inputs": [
        {
          "internalType": "uint256",
          "name": "",
          "type": "uint256"
        }
      ],
      "name": "idToExaminationResult",
      "outputs": [
        {
          "internalType": "uint256",
          "name": "id",
          "type": "uint256"
        },
        {
          "internalType": "string",
          "name": "ipfsHash",
          "type": "string"
        },
        {
          "internalType": "string",
          "name": "title",
          "type": "string"
        },
        {
          "internalType": "string",
          "name": "description",
          "type": "string"
        },
        {
          "internalType": "uint256",
          "name": "uploadedOn",
          "type": "uint256"
        }
      ],
      "stateMutability": "view",
      "type": "function"
    },
    {
      "inputs": [
        {
          "internalType": "uint256",
          "name": "",
          "type": "uint256"
        }
      ],
      "name": "idToMedication",
      "outputs": [
        {
          "internalType": "uint256",
          "name": "medicationId",
          "type": "uint256"
        },
        {
          "internalType": "string",
          "name": "medicationName",
          "type": "string"
        },
        {
          "internalType": "string",
          "name": "dosage",
          "type": "string"
        },
        {
          "internalType": "uint256",
          "name": "price",
          "type": "uint256"
        }
      ],
      "stateMutability": "view",
      "type": "function"
    },
    {
      "inputs": [
        {
          "internalType": "uint256",
          "name": "",
          "type": "uint256"
        }
      ],
      "name": "medicationIdToBool",
      "outputs": [
        {
          "internalType": "bool",
          "name": "",
          "type": "bool"
        }
      ],
      "stateMutability": "view",
      "type": "function"
    },
    {
      "inputs": [
        {
          "internalType": "string",
          "name": "_name",
          "type": "string"
        },
        {
          "internalType": "string",
          "name": "_specialty",
          "type": "string"
        },
        {
          "internalType": "string",
          "name": "_workplace",
          "type": "string"
        }
      ],
      "name": "registerNewDoctor",
      "outputs": [],
      "stateMutability": "nonpayable",
      "type": "function"
    },
    {
      "inputs": [
        {
          "internalType": "string",
          "name": "_name",
          "type": "string"
        },
        {
          "internalType": "enum PatientHealthRecord.Gender",
          "name": "_gender",
          "type": "uint8"
        },
        {
          "internalType": "uint8",
          "name": "_age",
          "type": "uint8"
        }
      ],
      "name": "registerNewPatient",
      "outputs": [],
      "stateMutability": "nonpayable",
      "type": "function"
    },
    {
      "inputs": [
        {
          "internalType": "uint8",
          "name": "_age",
          "type": "uint8"
        }
      ],
      "name": "updateMyAge",
      "outputs": [],
      "stateMutability": "nonpayable",
      "type": "function"
    },
    {
      "inputs": [
        {
          "internalType": "address",
          "name": "",
          "type": "address"
        }
      ],
      "name": "verifiedDoctor",
      "outputs": [
        {
          "internalType": "bool",
          "name": "",
          "type": "bool"
        }
      ],
      "stateMutability": "view",
      "type": "function"
    },
    {
      "inputs": [],
      "name": "viewExaminationResult",
      "outputs": [
        {
          "components": [
            {
              "internalType": "uint256",
              "name": "id",
              "type": "uint256"
            },
            {
              "internalType": "string",
              "name": "ipfsHash",
              "type": "string"
            },
            {
              "internalType": "string",
              "name": "title",
              "type": "string"
            },
            {
              "internalType": "string",
              "name": "description",
              "type": "string"
            },
            {
              "internalType": "uint256",
              "name": "uploadedOn",
              "type": "uint256"
            }
          ],
          "internalType": "struct PatientHealthRecord.ExaminationResults[]",
          "name": "",
          "type": "tuple[]"
        }
      ],
      "stateMutability": "view",
      "type": "function"
    },
    {
      "inputs": [],
      "name": "viewListOfDoctors",
      "outputs": [
        {
          "components": [
            {
              "internalType": "uint256",
              "name": "doctorID",
              "type": "uint256"
            },
            {
              "internalType": "string",
              "name": "doctorName",
              "type": "string"
            },
            {
              "internalType": "string",
              "name": "specialty",
              "type": "string"
            },
            {
              "internalType": "string",
              "name": "workplace",
              "type": "string"
            }
          ],
          "internalType": "struct PatientHealthRecord.Doctor[]",
          "name": "",
          "type": "tuple[]"
        }
      ],
      "stateMutability": "view",
      "type": "function"
    },
    {
      "inputs": [],
      "name": "viewListofDependencies",
      "outputs": [
        {
          "components": [
            {
              "internalType": "uint256",
              "name": "dependencyId",
              "type": "uint256"
            },
            {
              "internalType": "string",
              "name": "dependencyName",
              "type": "string"
            },
            {
              "internalType": "string",
              "name": "dependencyRelationship",
              "type": "string"
            },
            {
              "internalType": "string",
              "name": "dependencyAddress",
              "type": "string"
            },
            {
              "internalType": "uint256",
              "name": "contactNumber",
              "type": "uint256"
            }
          ],
          "internalType": "struct PatientHealthRecord.Dependency[]",
          "name": "",
          "type": "tuple[]"
        }
      ],
      "stateMutability": "view",
      "type": "function"
    },
    {
      "inputs": [],
      "name": "viewListofMedications",
      "outputs": [
        {
          "components": [
            {
              "internalType": "uint256",
              "name": "medicationId",
              "type": "uint256"
            },
            {
              "internalType": "string",
              "name": "medicationName",
              "type": "string"
            },
            {
              "internalType": "string",
              "name": "dosage",
              "type": "string"
            },
            {
              "internalType": "uint256",
              "name": "price",
              "type": "uint256"
            }
          ],
          "internalType": "struct PatientHealthRecord.Medication[]",
          "name": "",
          "type": "tuple[]"
        }
      ],
      "stateMutability": "view",
      "type": "function"
    },
    {
      "inputs": [],
      "name": "viewMyRecords",
      "outputs": [
        {
          "components": [
            {
              "internalType": "uint256",
              "name": "patientID",
              "type": "uint256"
            },
            {
              "internalType": "string",
              "name": "patientName",
              "type": "string"
            },
            {
              "internalType": "enum PatientHealthRecord.Gender",
              "name": "patientGender",
              "type": "uint8"
            },
            {
              "internalType": "uint8",
              "name": "patientAge",
              "type": "uint8"
            },
            {
              "internalType": "string[]",
              "name": "caseSummaries",
              "type": "string[]"
            },
            {
              "components": [
                {
                  "internalType": "uint256",
                  "name": "medicationId",
                  "type": "uint256"
                },
                {
                  "internalType": "string",
                  "name": "medicationName",
                  "type": "string"
                },
                {
                  "internalType": "string",
                  "name": "dosage",
                  "type": "string"
                },
                {
                  "internalType": "uint256",
                  "name": "price",
                  "type": "uint256"
                }
              ],
              "internalType": "struct PatientHealthRecord.Medication[]",
              "name": "prescriptions",
              "type": "tuple[]"
            },
            {
              "components": [
                {
                  "internalType": "uint256",
                  "name": "dependencyId",
                  "type": "uint256"
                },
                {
                  "internalType": "string",
                  "name": "dependencyName",
                  "type": "string"
                },
                {
                  "internalType": "string",
                  "name": "dependencyRelationship",
                  "type": "string"
                },
                {
                  "internalType": "string",
                  "name": "dependencyAddress",
                  "type": "string"
                },
                {
                  "internalType": "uint256",
                  "name": "contactNumber",
                  "type": "uint256"
                }
              ],
              "internalType": "struct PatientHealthRecord.Dependency[]",
              "name": "dependencies",
              "type": "tuple[]"
            }
          ],
          "internalType": "struct PatientHealthRecord.Patient",
          "name": "",
          "type": "tuple"
        }
      ],
      "stateMutability": "view",
      "type": "function"
    },
    {
      "inputs": [
        {
          "internalType": "uint256",
          "name": "_patientID",
          "type": "uint256"
        }
      ],
      "name": "viewPatientRecords",
      "outputs": [
        {
          "components": [
            {
              "internalType": "uint256",
              "name": "patientID",
              "type": "uint256"
            },
            {
              "internalType": "string",
              "name": "patientName",
              "type": "string"
            },
            {
              "internalType": "enum PatientHealthRecord.Gender",
              "name": "patientGender",
              "type": "uint8"
            },
            {
              "internalType": "uint8",
              "name": "patientAge",
              "type": "uint8"
            },
            {
              "internalType": "string[]",
              "name": "caseSummaries",
              "type": "string[]"
            },
            {
              "components": [
                {
                  "internalType": "uint256",
                  "name": "medicationId",
                  "type": "uint256"
                },
                {
                  "internalType": "string",
                  "name": "medicationName",
                  "type": "string"
                },
                {
                  "internalType": "string",
                  "name": "dosage",
                  "type": "string"
                },
                {
                  "internalType": "uint256",
                  "name": "price",
                  "type": "uint256"
                }
              ],
              "internalType": "struct PatientHealthRecord.Medication[]",
              "name": "prescriptions",
              "type": "tuple[]"
            },
            {
              "components": [
                {
                  "internalType": "uint256",
                  "name": "dependencyId",
                  "type": "uint256"
                },
                {
                  "internalType": "string",
                  "name": "dependencyName",
                  "type": "string"
                },
                {
                  "internalType": "string",
                  "name": "dependencyRelationship",
                  "type": "string"
                },
                {
                  "internalType": "string",
                  "name": "dependencyAddress",
                  "type": "string"
                },
                {
                  "internalType": "uint256",
                  "name": "contactNumber",
                  "type": "uint256"
                }
              ],
              "internalType": "struct PatientHealthRecord.Dependency[]",
              "name": "dependencies",
              "type": "tuple[]"
            }
          ],
          "internalType": "struct PatientHealthRecord.Patient",
          "name": "",
          "type": "tuple"
        }
      ],
      "stateMutability": "view",
      "type": "function"
    }
  ],
  "bytecode": "0x608060405260016000556001805534801561001957600080fd5b506161a5806200002a6000396000f3fe608060405234801561001057600080fd5b506004361061018e5760003560e01c8063549fc2e0116100de5780638abe828f116100975780638f33295d116100715780638f33295d146104c7578063ad86ac83146104f7578063b3799fe314610515578063bd71d0b4146105335761018e565b80638abe828f146104455780638c691a4b146104795780638eb1530c146104975761018e565b8063549fc2e01461036e57806361fad0081461038a5780637883d4a2146103a85780637f18e263146103c4578063827219bb146103f75780638a63bd18146104275761018e565b80631f52e4611161014b5780634162aa6d116101255780634162aa6d146102e857806344f6fe6f1461031857806346216098146103365780634f5bdf1c146103525761018e565b80631f52e4611461027e578063360a108f1461029a5780633b6d5b8c146102b85761018e565b80630134234e1461019357806305a71ab4146101c75780630ec785a4146101f7578063168901c71461022a578063181f4976146102465780631e29a19f14610262575b600080fd5b6101ad60048036038101906101a891906146a4565b61054f565b6040516101be959493929190614770565b60405180910390f35b6101e160048036038101906101dc91906146a4565b61071d565b6040516101ee91906147f3565b60405180910390f35b610211600480360381019061020c919061486c565b61073d565b6040516102219493929190614899565b60405180910390f35b610244600480360381019061023f91906149b6565b610905565b005b610260600480360381019061025b9190614a2a565b610c51565b005b61027c60048036038101906102779190614a6a565b610fd4565b005b61029860048036038101906102939190614b46565b611377565b005b6102a2611609565b6040516102af9190614d45565b60405180910390f35b6102d260048036038101906102cd91906146a4565b6118c5565b6040516102df9190614dd8565b60405180910390f35b61030260048036038101906102fd919061486c565b611bef565b60405161030f91906147f3565b60405180910390f35b610320611c0f565b60405161032d9190614f2d565b60405180910390f35b610350600480360381019061034b9190614f4f565b611ec1565b005b61036c60048036038101906103679190615003565b61211c565b005b61038860048036038101906103839190615030565b612255565b005b610392612580565b60405161039f919061521d565b60405180910390f35b6103c260048036038101906103bd91906146a4565b61283c565b005b6103de60048036038101906103d991906146a4565b612aa5565b6040516103ee949392919061523f565b60405180910390f35b610411600480360381019061040c91906146a4565b612be5565b60405161041e919061563d565b60405180910390f35b61042f6133d4565b60405161043c91906156e5565b60405180910390f35b61045f600480360381019061045a91906146a4565b6135fe565b604051610470959493929190614770565b60405180910390f35b6104816137cc565b60405161048e919061563d565b60405180910390f35b6104b160048036038101906104ac91906146a4565b613e43565b6040516104be91906147f3565b60405180910390f35b6104e160048036038101906104dc91906146a4565b613e63565b6040516104ee91906147f3565b60405180910390f35b6104ff613e83565b60405161050c9190615707565b60405180910390f35b61051d613e89565b60405161052a9190615707565b60405180910390f35b61054d60048036038101906105489190614a6a565b613e8f565b005b601260205280600052604060002060009150905080600001549080600101805461057890615751565b80601f01602080910402602001604051908101604052809291908181526020018280546105a490615751565b80156105f15780601f106105c6576101008083540402835291602001916105f1565b820191906000526020600020905b8154815290600101906020018083116105d457829003601f168201915b50505050509080600201805461060690615751565b80601f016020809104026020016040519081016040528092919081815260200182805461063290615751565b801561067f5780601f106106545761010080835404028352916020019161067f565b820191906000526020600020905b81548152906001019060200180831161066257829003601f168201915b50505050509080600301805461069490615751565b80601f01602080910402602001604051908101604052809291908181526020018280546106c090615751565b801561070d5780601f106106e25761010080835404028352916020019161070d565b820191906000526020600020905b8154815290600101906020018083116106f057829003601f168201915b5050505050908060040154905085565b600f6020528060005260406000206000915054906101000a900460ff1681565b600a60205280600052604060002060009150905080600001549080600101805461076690615751565b80601f016020809104026020016040519081016040528092919081815260200182805461079290615751565b80156107df5780601f106107b4576101008083540402835291602001916107df565b820191906000526020600020905b8154815290600101906020018083116107c257829003601f168201915b5050505050908060020180546107f490615751565b80601f016020809104026020016040519081016040528092919081815260200182805461082090615751565b801561086d5780601f106108425761010080835404028352916020019161086d565b820191906000526020600020905b81548152906001019060200180831161085057829003601f168201915b50505050509080600301805461088290615751565b80601f01602080910402602001604051908101604052809291908181526020018280546108ae90615751565b80156108fb5780601f106108d0576101008083540402835291602001916108fb565b820191906000526020600020905b8154815290600101906020018083116108de57829003601f168201915b5050505050905084565b8060ff166000811161094c576040517f08c379a0000000000000000000000000000000000000000000000000000000008152600401610943906157ce565b60405180910390fd5b60001515600760003373ffffffffffffffffffffffffffffffffffffffff1673ffffffffffffffffffffffffffffffffffffffff16815260200190815260200160002060009054906101000a900460ff161515146109df576040517f08c379a00000000000000000000000000000000000000000000000000000000081526004016109d69061583a565b60405180910390fd5b6000600960003373ffffffffffffffffffffffffffffffffffffffff1673ffffffffffffffffffffffffffffffffffffffff168152602001908152602001600020905060005481600001819055508585826001019182610a40929190615a40565b50838160020160006101000a81548160ff02191690836001811115610a6857610a67615292565b5b0217905550828160020160016101000a81548160ff021916908360ff16021790555033600b60008054815260200190815260200160002060006101000a81548173ffffffffffffffffffffffffffffffffffffffff021916908373ffffffffffffffffffffffffffffffffffffffff16021790555060048190806001815401808255809150506001900390600052602060002090600602016000909190919091506000820154816000015560018201816001019081610b279190615b26565b506002820160009054906101000a900460ff168160020160006101000a81548160ff02191690836001811115610b6057610b5f615292565b5b02179055506002820160019054906101000a900460ff168160020160016101000a81548160ff021916908360ff1602179055506003820181600301908054610ba992919061432d565b506004820181600401908054610bc092919061438a565b506005820181600501908054610bd7929190614420565b5050506001600760003373ffffffffffffffffffffffffffffffffffffffff1673ffffffffffffffffffffffffffffffffffffffff16815260200190815260200160002060006101000a81548160ff021916908315150217905550600080815480929190610c4490615c3d565b9190505550505050505050565b60011515600860003373ffffffffffffffffffffffffffffffffffffffff1673ffffffffffffffffffffffffffffffffffffffff16815260200190815260200160002060009054906101000a900460ff16151514610ce4576040517f08c379a0000000000000000000000000000000000000000000000000000000008152600401610cdb90615cd1565b60405180910390fd5b81600d60003373ffffffffffffffffffffffffffffffffffffffff1673ffffffffffffffffffffffffffffffffffffffff1681526020019081526020016000206000600b600084815260200190815260200160002060009054906101000a900473ffffffffffffffffffffffffffffffffffffffff1673ffffffffffffffffffffffffffffffffffffffff1673ffffffffffffffffffffffffffffffffffffffff16815260200190815260200160002060009054906101000a900460ff16610de1576040517f08c379a0000000000000000000000000000000000000000000000000000000008152600401610dd890615d63565b60405180910390fd5b8260008111610e25576040517f08c379a0000000000000000000000000000000000000000000000000000000008152600401610e1c906157ce565b60405180910390fd5b8260008111610e69576040517f08c379a0000000000000000000000000000000000000000000000000000000008152600401610e60906157ce565b60405180910390fd5b60011515600f600086815260200190815260200160002060009054906101000a900460ff16151514610ed0576040517f08c379a0000000000000000000000000000000000000000000000000000000008152600401610ec790615dcf565b60405180910390fd5b600060096000600b600089815260200190815260200160002060009054906101000a900473ffffffffffffffffffffffffffffffffffffffff1673ffffffffffffffffffffffffffffffffffffffff1673ffffffffffffffffffffffffffffffffffffffff16815260200190815260200160002090506000600e60008781526020019081526020016000209050816004018190806001815401808255809150506001900390600052602060002090600402016000909190919091506000820154816000015560018201816001019081610fa99190615b26565b5060028201816002019081610fbe9190615b26565b5060038201548160030155505050505050505050565b60011515600760003373ffffffffffffffffffffffffffffffffffffffff1673ffffffffffffffffffffffffffffffffffffffff16815260200190815260200160002060009054906101000a900460ff16151514611067576040517f08c379a000000000000000000000000000000000000000000000000000000000815260040161105e90615e3b565b60405180910390fd5b87600081116110ab576040517f08c379a00000000000000000000000000000000000000000000000000000000081526004016110a2906157ce565b60405180910390fd5b81600081116110ef576040517f08c379a00000000000000000000000000000000000000000000000000000000081526004016110e6906157ce565b60405180910390fd5b60001515601360008c815260200190815260200160002060009054906101000a900460ff16151514611156576040517f08c379a000000000000000000000000000000000000000000000000000000000815260040161114d90615ea7565b60405180910390fd5b6001601360008c815260200190815260200160002060006101000a81548160ff02191690831515021790555060006040518060a001604052808c81526020018b8b8080601f016020809104026020016040519081016040528093929190818152602001838380828437600081840152601f19601f82011690508083019250505050505050815260200189898080601f016020809104026020016040519081016040528093929190818152602001838380828437600081840152601f19601f82011690508083019250505050505050815260200187878080601f016020809104026020016040519081016040528093929190818152602001838380828437600081840152601f19601f82011690508083019250505050505050815260200185815250905080601260008d81526020019081526020016000206000820151816000015560208201518160010190816112ac9190615ec7565b5060408201518160020190816112c29190615ec7565b5060608201518160030190816112d89190615ec7565b506080820151816004015590505060038190806001815401808255809150506001900390600052602060002090600502016000909190919091506000820151816000015560208201518160010190816113319190615ec7565b5060408201518160020190816113479190615ec7565b50606082015181600301908161135d9190615ec7565b506080820151816004015550505050505050505050505050565b60011515600860003373ffffffffffffffffffffffffffffffffffffffff1673ffffffffffffffffffffffffffffffffffffffff16815260200190815260200160002060009054906101000a900460ff1615151461140a576040517f08c379a000000000000000000000000000000000000000000000000000000000815260040161140190615cd1565b60405180910390fd5b80600d60003373ffffffffffffffffffffffffffffffffffffffff1673ffffffffffffffffffffffffffffffffffffffff1681526020019081526020016000206000600b600084815260200190815260200160002060009054906101000a900473ffffffffffffffffffffffffffffffffffffffff1673ffffffffffffffffffffffffffffffffffffffff1673ffffffffffffffffffffffffffffffffffffffff16815260200190815260200160002060009054906101000a900460ff16611507576040517f08c379a00000000000000000000000000000000000000000000000000000000081526004016114fe90615d63565b60405180910390fd5b816000811161154b576040517f08c379a0000000000000000000000000000000000000000000000000000000008152600401611542906157ce565b60405180910390fd5b6000600b600085815260200190815260200160002060009054906101000a900473ffffffffffffffffffffffffffffffffffffffff169050600960008273ffffffffffffffffffffffffffffffffffffffff1673ffffffffffffffffffffffffffffffffffffffff168152602001908152602001600020600301868690918060018154018082558091505060019003906000526020600020016000909192909192909192909192509182611600929190615a40565b50505050505050565b606060011515600760003373ffffffffffffffffffffffffffffffffffffffff1673ffffffffffffffffffffffffffffffffffffffff16815260200190815260200160002060009054906101000a900460ff1615151461169e576040517f08c379a000000000000000000000000000000000000000000000000000000000815260040161169590615e3b565b60405180910390fd5b6003805480602002602001604051908101604052809291908181526020016000905b828210156118bc57838290600052602060002090600502016040518060a0016040529081600082015481526020016001820180546116fd90615751565b80601f016020809104026020016040519081016040528092919081815260200182805461172990615751565b80156117765780601f1061174b57610100808354040283529160200191611776565b820191906000526020600020905b81548152906001019060200180831161175957829003601f168201915b5050505050815260200160028201805461178f90615751565b80601f01602080910402602001604051908101604052809291908181526020018280546117bb90615751565b80156118085780601f106117dd57610100808354040283529160200191611808565b820191906000526020600020905b8154815290600101906020018083116117eb57829003601f168201915b5050505050815260200160038201805461182190615751565b80601f016020809104026020016040519081016040528092919081815260200182805461184d90615751565b801561189a5780601f1061186f5761010080835404028352916020019161189a565b820191906000526020600020905b81548152906001019060200180831161187d57829003601f168201915b50505050508152602001600482015481525050815260200190600101906116c0565b50505050905090565b6118cd6144cb565b8160008111611911576040517f08c379a0000000000000000000000000000000000000000000000000000000008152600401611908906157ce565b60405180910390fd5b60011515600760003373ffffffffffffffffffffffffffffffffffffffff1673ffffffffffffffffffffffffffffffffffffffff16815260200190815260200160002060009054906101000a900460ff161515146119a4576040517f08c379a000000000000000000000000000000000000000000000000000000000815260040161199b90615e3b565b60405180910390fd5b6000600c600085815260200190815260200160002060009054906101000a900473ffffffffffffffffffffffffffffffffffffffff169050600a60008273ffffffffffffffffffffffffffffffffffffffff1673ffffffffffffffffffffffffffffffffffffffff16815260200190815260200160002060405180608001604052908160008201548152602001600182018054611a4090615751565b80601f0160208091040260200160405190810160405280929190818152602001828054611a6c90615751565b8015611ab95780601f10611a8e57610100808354040283529160200191611ab9565b820191906000526020600020905b815481529060010190602001808311611a9c57829003601f168201915b50505050508152602001600282018054611ad290615751565b80601f0160208091040260200160405190810160405280929190818152602001828054611afe90615751565b8015611b4b5780601f10611b2057610100808354040283529160200191611b4b565b820191906000526020600020905b815481529060010190602001808311611b2e57829003601f168201915b50505050508152602001600382018054611b6490615751565b80601f0160208091040260200160405190810160405280929190818152602001828054611b9090615751565b8015611bdd5780601f10611bb257610100808354040283529160200191611bdd565b820191906000526020600020905b815481529060010190602001808311611bc057829003601f168201915b50505050508152505092505050919050565b60086020528060005260406000206000915054906101000a900460ff1681565b606060011515600760003373ffffffffffffffffffffffffffffffffffffffff1673ffffffffffffffffffffffffffffffffffffffff16815260200190815260200160002060009054906101000a900460ff16151514611ca4576040517f08c379a0000000000000000000000000000000000000000000000000000000008152600401611c9b90615e3b565b60405180910390fd5b6005805480602002602001604051908101604052809291908181526020016000905b82821015611eb8578382906000526020600020906004020160405180608001604052908160008201548152602001600182018054611d0390615751565b80601f0160208091040260200160405190810160405280929190818152602001828054611d2f90615751565b8015611d7c5780601f10611d5157610100808354040283529160200191611d7c565b820191906000526020600020905b815481529060010190602001808311611d5f57829003601f168201915b50505050508152602001600282018054611d9590615751565b80601f0160208091040260200160405190810160405280929190818152602001828054611dc190615751565b8015611e0e5780601f10611de357610100808354040283529160200191611e0e565b820191906000526020600020905b815481529060010190602001808311611df157829003601f168201915b50505050508152602001600382018054611e2790615751565b80601f0160208091040260200160405190810160405280929190818152602001828054611e5390615751565b8015611ea05780601f10611e7557610100808354040283529160200191611ea0565b820191906000526020600020905b815481529060010190602001808311611e8357829003601f168201915b50505050508152505081526020019060010190611cc6565b50505050905090565b600860003373ffffffffffffffffffffffffffffffffffffffff1673ffffffffffffffffffffffffffffffffffffffff16815260200190815260200160002060009054906101000a900460ff1615611f4e576040517f08c379a0000000000000000000000000000000000000000000000000000000008152600401611f4590615fe5565b60405180910390fd5b6001600860003373ffffffffffffffffffffffffffffffffffffffff1673ffffffffffffffffffffffffffffffffffffffff16815260200190815260200160002060006101000a81548160ff0219169083151502179055506000600a60003373ffffffffffffffffffffffffffffffffffffffff1673ffffffffffffffffffffffffffffffffffffffff168152602001908152602001600020905060015481600001819055508686826001019182612007929190615a40565b50848482600201918261201b929190615a40565b50828282600301918261202f929190615a40565b506005819080600181540180825580915050600190039060005260206000209060040201600090919091909150600082015481600001556001820181600101908161207a9190615b26565b506002820181600201908161208f9190615b26565b50600382018160030190816120a49190615b26565b50505033600c6000600154815260200190815260200160002060006101000a81548173ffffffffffffffffffffffffffffffffffffffff021916908373ffffffffffffffffffffffffffffffffffffffff1602179055506001600081548092919061210e90615c3d565b919050555050505050505050565b8060ff1660008111612163576040517f08c379a000000000000000000000000000000000000000000000000000000000815260040161215a906157ce565b60405180910390fd5b60011515600760003373ffffffffffffffffffffffffffffffffffffffff1673ffffffffffffffffffffffffffffffffffffffff16815260200190815260200160002060009054906101000a900460ff161515146121f6576040517f08c379a00000000000000000000000000000000000000000000000000000000081526004016121ed90615e3b565b60405180910390fd5b81600960003373ffffffffffffffffffffffffffffffffffffffff1673ffffffffffffffffffffffffffffffffffffffff16815260200190815260200160002060020160016101000a81548160ff021916908360ff1602179055505050565b60011515600860003373ffffffffffffffffffffffffffffffffffffffff1673ffffffffffffffffffffffffffffffffffffffff16815260200190815260200160002060009054906101000a900460ff161515146122e8576040517f08c379a00000000000000000000000000000000000000000000000000000000081526004016122df90615cd1565b60405180910390fd5b856000811161232c576040517f08c379a0000000000000000000000000000000000000000000000000000000008152600401612323906157ce565b60405180910390fd5b8160008111612370576040517f08c379a0000000000000000000000000000000000000000000000000000000008152600401612367906157ce565b60405180910390fd5b60001515600f60008a815260200190815260200160002060009054906101000a900460ff161515146123d7576040517f08c379a00000000000000000000000000000000000000000000000000000000081526004016123ce90616051565b60405180910390fd5b6001600f60008a815260200190815260200160002060006101000a81548160ff021916908315150217905550600060405180608001604052808a815260200189898080601f016020809104026020016040519081016040528093929190818152602001838380828437600081840152601f19601f82011690508083019250505050505050815260200187878080601f016020809104026020016040519081016040528093929190818152602001838380828437600081840152601f19601f82011690508083019250505050505050815260200185815250905080600e60008b81526020019081526020016000206000820151816000015560208201518160010190816124e39190615ec7565b5060408201518160020190816124f99190615ec7565b506060820151816003015590505060068190806001815401808255809150506001900390600052602060002090600402016000909190919091506000820151816000015560208201518160010190816125529190615ec7565b5060408201518160020190816125689190615ec7565b50606082015181600301555050505050505050505050565b606060011515600760003373ffffffffffffffffffffffffffffffffffffffff1673ffffffffffffffffffffffffffffffffffffffff16815260200190815260200160002060009054906101000a900460ff16151514612615576040517f08c379a000000000000000000000000000000000000000000000000000000000815260040161260c90615e3b565b60405180910390fd5b6002805480602002602001604051908101604052809291908181526020016000905b8282101561283357838290600052602060002090600502016040518060a00160405290816000820154815260200160018201805461267490615751565b80601f01602080910402602001604051908101604052809291908181526020018280546126a090615751565b80156126ed5780601f106126c2576101008083540402835291602001916126ed565b820191906000526020600020905b8154815290600101906020018083116126d057829003601f168201915b5050505050815260200160028201805461270690615751565b80601f016020809104026020016040519081016040528092919081815260200182805461273290615751565b801561277f5780601f106127545761010080835404028352916020019161277f565b820191906000526020600020905b81548152906001019060200180831161276257829003601f168201915b5050505050815260200160038201805461279890615751565b80601f01602080910402602001604051908101604052809291908181526020018280546127c490615751565b80156128115780601f106127e657610100808354040283529160200191612811565b820191906000526020600020905b8154815290600101906020018083116127f457829003601f168201915b5050505050815260200160048201548152505081526020019060010190612637565b50505050905090565b8060008111612880576040517f08c379a0000000000000000000000000000000000000000000000000000000008152600401612877906157ce565b60405180910390fd5b60011515600760003373ffffffffffffffffffffffffffffffffffffffff1673ffffffffffffffffffffffffffffffffffffffff16815260200190815260200160002060009054906101000a900460ff16151514612913576040517f08c379a000000000000000000000000000000000000000000000000000000000815260040161290a90615e3b565b60405180910390fd5b6001151560086000600c600086815260200190815260200160002060009054906101000a900473ffffffffffffffffffffffffffffffffffffffff1673ffffffffffffffffffffffffffffffffffffffff1673ffffffffffffffffffffffffffffffffffffffff16815260200190815260200160002060009054906101000a900460ff161515146129d9576040517f08c379a00000000000000000000000000000000000000000000000000000000081526004016129d0906160bd565b60405180910390fd5b6001600d6000600c600086815260200190815260200160002060009054906101000a900473ffffffffffffffffffffffffffffffffffffffff1673ffffffffffffffffffffffffffffffffffffffff1673ffffffffffffffffffffffffffffffffffffffff16815260200190815260200160002060003373ffffffffffffffffffffffffffffffffffffffff1673ffffffffffffffffffffffffffffffffffffffff16815260200190815260200160002060006101000a81548160ff0219169083151502179055505050565b600e602052806000526040600020600091509050806000015490806001018054612ace90615751565b80601f0160208091040260200160405190810160405280929190818152602001828054612afa90615751565b8015612b475780601f10612b1c57610100808354040283529160200191612b47565b820191906000526020600020905b815481529060010190602001808311612b2a57829003601f168201915b505050505090806002018054612b5c90615751565b80601f0160208091040260200160405190810160405280929190818152602001828054612b8890615751565b8015612bd55780601f10612baa57610100808354040283529160200191612bd5565b820191906000526020600020905b815481529060010190602001808311612bb857829003601f168201915b5050505050908060030154905084565b612bed6144f3565b60011515600860003373ffffffffffffffffffffffffffffffffffffffff1673ffffffffffffffffffffffffffffffffffffffff16815260200190815260200160002060009054906101000a900460ff16151514612c80576040517f08c379a0000000000000000000000000000000000000000000000000000000008152600401612c7790615cd1565b60405180910390fd5b81600d60003373ffffffffffffffffffffffffffffffffffffffff1673ffffffffffffffffffffffffffffffffffffffff1681526020019081526020016000206000600b600084815260200190815260200160002060009054906101000a900473ffffffffffffffffffffffffffffffffffffffff1673ffffffffffffffffffffffffffffffffffffffff1673ffffffffffffffffffffffffffffffffffffffff16815260200190815260200160002060009054906101000a900460ff16612d7d576040517f08c379a0000000000000000000000000000000000000000000000000000000008152600401612d7490615d63565b60405180910390fd5b8260008111612dc1576040517f08c379a0000000000000000000000000000000000000000000000000000000008152600401612db8906157ce565b60405180910390fd5b60096000600b600087815260200190815260200160002060009054906101000a900473ffffffffffffffffffffffffffffffffffffffff1673ffffffffffffffffffffffffffffffffffffffff1673ffffffffffffffffffffffffffffffffffffffff1681526020019081526020016000206040518060e001604052908160008201548152602001600182018054612e5890615751565b80601f0160208091040260200160405190810160405280929190818152602001828054612e8490615751565b8015612ed15780601f10612ea657610100808354040283529160200191612ed1565b820191906000526020600020905b815481529060010190602001808311612eb457829003601f168201915b505050505081526020016002820160009054906101000a900460ff166001811115612eff57612efe615292565b5b6001811115612f1157612f10615292565b5b81526020016002820160019054906101000a900460ff1660ff1660ff16815260200160038201805480602002602001604051908101604052809291908181526020016000905b82821015613003578382906000526020600020018054612f7690615751565b80601f0160208091040260200160405190810160405280929190818152602001828054612fa290615751565b8015612fef5780601f10612fc457610100808354040283529160200191612fef565b820191906000526020600020905b815481529060010190602001808311612fd257829003601f168201915b505050505081526020019060010190612f57565b50505050815260200160048201805480602002602001604051908101604052809291908181526020016000905b8282101561319a57838290600052602060002090600402016040518060800160405290816000820154815260200160018201805461306d90615751565b80601f016020809104026020016040519081016040528092919081815260200182805461309990615751565b80156130e65780601f106130bb576101008083540402835291602001916130e6565b820191906000526020600020905b8154815290600101906020018083116130c957829003601f168201915b505050505081526020016002820180546130ff90615751565b80601f016020809104026020016040519081016040528092919081815260200182805461312b90615751565b80156131785780601f1061314d57610100808354040283529160200191613178565b820191906000526020600020905b81548152906001019060200180831161315b57829003601f168201915b5050505050815260200160038201548152505081526020019060010190613030565b50505050815260200160058201805480602002602001604051908101604052809291908181526020016000905b828210156133c357838290600052602060002090600502016040518060a00160405290816000820154815260200160018201805461320490615751565b80601f016020809104026020016040519081016040528092919081815260200182805461323090615751565b801561327d5780601f106132525761010080835404028352916020019161327d565b820191906000526020600020905b81548152906001019060200180831161326057829003601f168201915b5050505050815260200160028201805461329690615751565b80601f01602080910402602001604051908101604052809291908181526020018280546132c290615751565b801561330f5780601f106132e45761010080835404028352916020019161330f565b820191906000526020600020905b8154815290600101906020018083116132f257829003601f168201915b5050505050815260200160038201805461332890615751565b80601f016020809104026020016040519081016040528092919081815260200182805461335490615751565b80156133a15780601f10613376576101008083540402835291602001916133a1565b820191906000526020600020905b81548152906001019060200180831161338457829003601f168201915b50505050508152602001600482015481525050815260200190600101906131c7565b505050508152505092505050919050565b606060011515600860003373ffffffffffffffffffffffffffffffffffffffff1673ffffffffffffffffffffffffffffffffffffffff16815260200190815260200160002060009054906101000a900460ff16151514613469576040517f08c379a000000000000000000000000000000000000000000000000000000000815260040161346090615cd1565b60405180910390fd5b6006805480602002602001604051908101604052809291908181526020016000905b828210156135f55783829060005260206000209060040201604051806080016040529081600082015481526020016001820180546134c890615751565b80601f01602080910402602001604051908101604052809291908181526020018280546134f490615751565b80156135415780601f1061351657610100808354040283529160200191613541565b820191906000526020600020905b81548152906001019060200180831161352457829003601f168201915b5050505050815260200160028201805461355a90615751565b80601f016020809104026020016040519081016040528092919081815260200182805461358690615751565b80156135d35780601f106135a8576101008083540402835291602001916135d3565b820191906000526020600020905b8154815290600101906020018083116135b657829003601f168201915b505050505081526020016003820154815250508152602001906001019061348b565b50505050905090565b601060205280600052604060002060009150905080600001549080600101805461362790615751565b80601f016020809104026020016040519081016040528092919081815260200182805461365390615751565b80156136a05780601f10613675576101008083540402835291602001916136a0565b820191906000526020600020905b81548152906001019060200180831161368357829003601f168201915b5050505050908060020180546136b590615751565b80601f01602080910402602001604051908101604052809291908181526020018280546136e190615751565b801561372e5780601f106137035761010080835404028352916020019161372e565b820191906000526020600020905b81548152906001019060200180831161371157829003601f168201915b50505050509080600301805461374390615751565b80601f016020809104026020016040519081016040528092919081815260200182805461376f90615751565b80156137bc5780601f10613791576101008083540402835291602001916137bc565b820191906000526020600020905b81548152906001019060200180831161379f57829003601f168201915b5050505050908060040154905085565b6137d46144f3565b60011515600760003373ffffffffffffffffffffffffffffffffffffffff1673ffffffffffffffffffffffffffffffffffffffff16815260200190815260200160002060009054906101000a900460ff16151514613867576040517f08c379a000000000000000000000000000000000000000000000000000000000815260040161385e90615e3b565b60405180910390fd5b600960003373ffffffffffffffffffffffffffffffffffffffff1673ffffffffffffffffffffffffffffffffffffffff1681526020019081526020016000206040518060e0016040529081600082015481526020016001820180546138cb90615751565b80601f01602080910402602001604051908101604052809291908181526020018280546138f790615751565b80156139445780601f1061391957610100808354040283529160200191613944565b820191906000526020600020905b81548152906001019060200180831161392757829003601f168201915b505050505081526020016002820160009054906101000a900460ff16600181111561397257613971615292565b5b600181111561398457613983615292565b5b81526020016002820160019054906101000a900460ff1660ff1660ff16815260200160038201805480602002602001604051908101604052809291908181526020016000905b82821015613a765783829060005260206000200180546139e990615751565b80601f0160208091040260200160405190810160405280929190818152602001828054613a1590615751565b8015613a625780601f10613a3757610100808354040283529160200191613a62565b820191906000526020600020905b815481529060010190602001808311613a4557829003601f168201915b5050505050815260200190600101906139ca565b50505050815260200160048201805480602002602001604051908101604052809291908181526020016000905b82821015613c0d578382906000526020600020906004020160405180608001604052908160008201548152602001600182018054613ae090615751565b80601f0160208091040260200160405190810160405280929190818152602001828054613b0c90615751565b8015613b595780601f10613b2e57610100808354040283529160200191613b59565b820191906000526020600020905b815481529060010190602001808311613b3c57829003601f168201915b50505050508152602001600282018054613b7290615751565b80601f0160208091040260200160405190810160405280929190818152602001828054613b9e90615751565b8015613beb5780601f10613bc057610100808354040283529160200191613beb565b820191906000526020600020905b815481529060010190602001808311613bce57829003601f168201915b5050505050815260200160038201548152505081526020019060010190613aa3565b50505050815260200160058201805480602002602001604051908101604052809291908181526020016000905b82821015613e3657838290600052602060002090600502016040518060a001604052908160008201548152602001600182018054613c7790615751565b80601f0160208091040260200160405190810160405280929190818152602001828054613ca390615751565b8015613cf05780601f10613cc557610100808354040283529160200191613cf0565b820191906000526020600020905b815481529060010190602001808311613cd357829003601f168201915b50505050508152602001600282018054613d0990615751565b80601f0160208091040260200160405190810160405280929190818152602001828054613d3590615751565b8015613d825780601f10613d5757610100808354040283529160200191613d82565b820191906000526020600020905b815481529060010190602001808311613d6557829003601f168201915b50505050508152602001600382018054613d9b90615751565b80601f0160208091040260200160405190810160405280929190818152602001828054613dc790615751565b8015613e145780601f10613de957610100808354040283529160200191613e14565b820191906000526020600020905b815481529060010190602001808311613df757829003601f168201915b5050505050815260200160048201548152505081526020019060010190613c3a565b5050505081525050905090565b60116020528060005260406000206000915054906101000a900460ff1681565b60136020528060005260406000206000915054906101000a900460ff1681565b60015481565b60005481565b60011515600860003373ffffffffffffffffffffffffffffffffffffffff1673ffffffffffffffffffffffffffffffffffffffff16815260200190815260200160002060009054906101000a900460ff16151514613f22576040517f08c379a0000000000000000000000000000000000000000000000000000000008152600401613f1990615cd1565b60405180910390fd5b87600d60003373ffffffffffffffffffffffffffffffffffffffff1673ffffffffffffffffffffffffffffffffffffffff1681526020019081526020016000206000600b600084815260200190815260200160002060009054906101000a900473ffffffffffffffffffffffffffffffffffffffff1673ffffffffffffffffffffffffffffffffffffffff1673ffffffffffffffffffffffffffffffffffffffff16815260200190815260200160002060009054906101000a900460ff1661401f576040517f08c379a000000000000000000000000000000000000000000000000000000000815260040161401690615d63565b60405180910390fd5b8160008111614063576040517f08c379a000000000000000000000000000000000000000000000000000000000815260040161405a906157ce565b60405180910390fd5b602e898990501461407357600080fd5b60008787905011801561408b57506101008787905011155b61409457600080fd5b61040085859050106140a557600080fd5b60001515601160008c815260200190815260200160002060009054906101000a900460ff1615151461410c576040517f08c379a00000000000000000000000000000000000000000000000000000000081526004016141039061614f565b60405180910390fd5b6001601160008c815260200190815260200160002060006101000a81548160ff02191690831515021790555060006040518060a001604052808c81526020018b8b8080601f016020809104026020016040519081016040528093929190818152602001838380828437600081840152601f19601f82011690508083019250505050505050815260200189898080601f016020809104026020016040519081016040528093929190818152602001838380828437600081840152601f19601f82011690508083019250505050505050815260200187878080601f016020809104026020016040519081016040528093929190818152602001838380828437600081840152601f19601f82011690508083019250505050505050815260200185815250905080601060008d81526020019081526020016000206000820151816000015560208201518160010190816142629190615ec7565b5060408201518160020190816142789190615ec7565b50606082015181600301908161428e9190615ec7565b506080820151816004015590505060028190806001815401808255809150506001900390600052602060002090600502016000909190919091506000820151816000015560208201518160010190816142e79190615ec7565b5060408201518160020190816142fd9190615ec7565b5060608201518160030190816143139190615ec7565b506080820151816004015550505050505050505050505050565b8280548282559060005260206000209081019282156143795760005260206000209182015b8281111561437857828290816143689190615b26565b5091600101919060010190614352565b5b5090506143869190614545565b5090565b82805482825590600052602060002090600402810192821561440f5760005260206000209160040282015b8281111561440e57828260008201548160000155600182018160010190816143dd9190615b26565b50600282018160020190816143f29190615b26565b50600382015481600301555050916004019190600401906143b5565b5b50905061441c9190614569565b5090565b8280548282559060005260206000209060050281019282156144ba5760005260206000209160050282015b828111156144b957828260008201548160000155600182018160010190816144739190615b26565b50600282018160020190816144889190615b26565b506003820181600301908161449d9190615b26565b506004820154816004015550509160050191906005019061444b565b5b5090506144c791906145b0565b5090565b6040518060800160405280600081526020016060815260200160608152602001606081525090565b6040518060e001604052806000815260200160608152602001600060018111156145205761451f615292565b5b8152602001600060ff1681526020016060815260200160608152602001606081525090565b5b80821115614565576000818161455c9190614607565b50600101614546565b5090565b5b808211156145ac5760008082016000905560018201600061458b9190614607565b60028201600061459b9190614607565b60038201600090555060040161456a565b5090565b5b80821115614603576000808201600090556001820160006145d29190614607565b6002820160006145e29190614607565b6003820160006145f29190614607565b6004820160009055506005016145b1565b5090565b50805461461390615751565b6000825580601f106146255750614644565b601f0160209004906000526020600020908101906146439190614647565b5b50565b5b80821115614660576000816000905550600101614648565b5090565b600080fd5b600080fd5b6000819050919050565b6146818161466e565b811461468c57600080fd5b50565b60008135905061469e81614678565b92915050565b6000602082840312156146ba576146b9614664565b5b60006146c88482850161468f565b91505092915050565b6146da8161466e565b82525050565b600081519050919050565b600082825260208201905092915050565b60005b8381101561471a5780820151818401526020810190506146ff565b60008484015250505050565b6000601f19601f8301169050919050565b6000614742826146e0565b61474c81856146eb565b935061475c8185602086016146fc565b61476581614726565b840191505092915050565b600060a08201905061478560008301886146d1565b81810360208301526147978187614737565b905081810360408301526147ab8186614737565b905081810360608301526147bf8185614737565b90506147ce60808301846146d1565b9695505050505050565b60008115159050919050565b6147ed816147d8565b82525050565b600060208201905061480860008301846147e4565b92915050565b600073ffffffffffffffffffffffffffffffffffffffff82169050919050565b60006148398261480e565b9050919050565b6148498161482e565b811461485457600080fd5b50565b60008135905061486681614840565b92915050565b60006020828403121561488257614881614664565b5b600061489084828501614857565b91505092915050565b60006080820190506148ae60008301876146d1565b81810360208301526148c08186614737565b905081810360408301526148d48185614737565b905081810360608301526148e88184614737565b905095945050505050565b600080fd5b600080fd5b600080fd5b60008083601f840112614918576149176148f3565b5b8235905067ffffffffffffffff811115614935576149346148f8565b5b602083019150836001820283011115614951576149506148fd565b5b9250929050565b6002811061496557600080fd5b50565b60008135905061497781614958565b92915050565b600060ff82169050919050565b6149938161497d565b811461499e57600080fd5b50565b6000813590506149b08161498a565b92915050565b600080600080606085870312156149d0576149cf614664565b5b600085013567ffffffffffffffff8111156149ee576149ed614669565b5b6149fa87828801614902565b94509450506020614a0d87828801614968565b9250506040614a1e878288016149a1565b91505092959194509250565b60008060408385031215614a4157614a40614664565b5b6000614a4f8582860161468f565b9250506020614a608582860161468f565b9150509250929050565b60008060008060008060008060a0898b031215614a8a57614a89614664565b5b6000614a988b828c0161468f565b985050602089013567ffffffffffffffff811115614ab957614ab8614669565b5b614ac58b828c01614902565b9750975050604089013567ffffffffffffffff811115614ae857614ae7614669565b5b614af48b828c01614902565b9550955050606089013567ffffffffffffffff811115614b1757614b16614669565b5b614b238b828c01614902565b93509350506080614b368b828c0161468f565b9150509295985092959890939650565b600080600060408486031215614b5f57614b5e614664565b5b600084013567ffffffffffffffff811115614b7d57614b7c614669565b5b614b8986828701614902565b93509350506020614b9c8682870161468f565b9150509250925092565b600081519050919050565b600082825260208201905092915050565b6000819050602082019050919050565b614bdb8161466e565b82525050565b600082825260208201905092915050565b6000614bfd826146e0565b614c078185614be1565b9350614c178185602086016146fc565b614c2081614726565b840191505092915050565b600060a083016000830151614c436000860182614bd2565b5060208301518482036020860152614c5b8282614bf2565b91505060408301518482036040860152614c758282614bf2565b91505060608301518482036060860152614c8f8282614bf2565b9150506080830151614ca46080860182614bd2565b508091505092915050565b6000614cbb8383614c2b565b905092915050565b6000602082019050919050565b6000614cdb82614ba6565b614ce58185614bb1565b935083602082028501614cf785614bc2565b8060005b85811015614d335784840389528151614d148582614caf565b9450614d1f83614cc3565b925060208a01995050600181019050614cfb565b50829750879550505050505092915050565b60006020820190508181036000830152614d5f8184614cd0565b905092915050565b6000608083016000830151614d7f6000860182614bd2565b5060208301518482036020860152614d978282614bf2565b91505060408301518482036040860152614db18282614bf2565b91505060608301518482036060860152614dcb8282614bf2565b9150508091505092915050565b60006020820190508181036000830152614df28184614d67565b905092915050565b600081519050919050565b600082825260208201905092915050565b6000819050602082019050919050565b6000608083016000830151614e3e6000860182614bd2565b5060208301518482036020860152614e568282614bf2565b91505060408301518482036040860152614e708282614bf2565b91505060608301518482036060860152614e8a8282614bf2565b9150508091505092915050565b6000614ea38383614e26565b905092915050565b6000602082019050919050565b6000614ec382614dfa565b614ecd8185614e05565b935083602082028501614edf85614e16565b8060005b85811015614f1b5784840389528151614efc8582614e97565b9450614f0783614eab565b925060208a01995050600181019050614ee3565b50829750879550505050505092915050565b60006020820190508181036000830152614f478184614eb8565b905092915050565b60008060008060008060608789031215614f6c57614f6b614664565b5b600087013567ffffffffffffffff811115614f8a57614f89614669565b5b614f9689828a01614902565b9650965050602087013567ffffffffffffffff811115614fb957614fb8614669565b5b614fc589828a01614902565b9450945050604087013567ffffffffffffffff811115614fe857614fe7614669565b5b614ff489828a01614902565b92509250509295509295509295565b60006020828403121561501957615018614664565b5b6000615027848285016149a1565b91505092915050565b6000806000806000806080878903121561504d5761504c614664565b5b600061505b89828a0161468f565b965050602087013567ffffffffffffffff81111561507c5761507b614669565b5b61508889828a01614902565b9550955050604087013567ffffffffffffffff8111156150ab576150aa614669565b5b6150b789828a01614902565b935093505060606150ca89828a0161468f565b9150509295509295509295565b600081519050919050565b600082825260208201905092915050565b6000819050602082019050919050565b600060a08301600083015161511b6000860182614bd2565b50602083015184820360208601526151338282614bf2565b9150506040830151848203604086015261514d8282614bf2565b915050606083015184820360608601526151678282614bf2565b915050608083015161517c6080860182614bd2565b508091505092915050565b60006151938383615103565b905092915050565b6000602082019050919050565b60006151b3826150d7565b6151bd81856150e2565b9350836020820285016151cf856150f3565b8060005b8581101561520b57848403895281516151ec8582615187565b94506151f78361519b565b925060208a019950506001810190506151d3565b50829750879550505050505092915050565b6000602082019050818103600083015261523781846151a8565b905092915050565b600060808201905061525460008301876146d1565b81810360208301526152668186614737565b9050818103604083015261527a8185614737565b905061528960608301846146d1565b95945050505050565b7f4e487b7100000000000000000000000000000000000000000000000000000000600052602160045260246000fd5b600281106152d2576152d1615292565b5b50565b60008190506152e3826152c1565b919050565b60006152f3826152d5565b9050919050565b615303816152e8565b82525050565b6153128161497d565b82525050565b600081519050919050565b600082825260208201905092915050565b6000819050602082019050919050565b60006153508383614bf2565b905092915050565b6000602082019050919050565b600061537082615318565b61537a8185615323565b93508360208202850161538c85615334565b8060005b858110156153c857848403895281516153a98582615344565b94506153b483615358565b925060208a01995050600181019050615390565b50829750879550505050505092915050565b600081519050919050565b600082825260208201905092915050565b6000819050602082019050919050565b600060808301600083015161541e6000860182614bd2565b50602083015184820360208601526154368282614bf2565b915050604083015184820360408601526154508282614bf2565b91505060608301516154656060860182614bd2565b508091505092915050565b600061547c8383615406565b905092915050565b6000602082019050919050565b600061549c826153da565b6154a681856153e5565b9350836020820285016154b8856153f6565b8060005b858110156154f457848403895281516154d58582615470565b94506154e083615484565b925060208a019950506001810190506154bc565b50829750879550505050505092915050565b600082825260208201905092915050565b600061552282614ba6565b61552c8185615506565b93508360208202850161553e85614bc2565b8060005b8581101561557a578484038952815161555b8582614caf565b945061556683614cc3565b925060208a01995050600181019050615542565b50829750879550505050505092915050565b600060e0830160008301516155a46000860182614bd2565b50602083015184820360208601526155bc8282614bf2565b91505060408301516155d160408601826152fa565b5060608301516155e46060860182615309565b50608083015184820360808601526155fc8282615365565b91505060a083015184820360a08601526156168282615491565b91505060c083015184820360c08601526156308282615517565b9150508091505092915050565b60006020820190508181036000830152615657818461558c565b905092915050565b600082825260208201905092915050565b600061567b826153da565b615685818561565f565b935083602082028501615697856153f6565b8060005b858110156156d357848403895281516156b48582615470565b94506156bf83615484565b925060208a0199505060018101905061569b565b50829750879550505050505092915050565b600060208201905081810360008301526156ff8184615670565b905092915050565b600060208201905061571c60008301846146d1565b92915050565b7f4e487b7100000000000000000000000000000000000000000000000000000000600052602260045260246000fd5b6000600282049050600182168061576957607f821691505b60208210810361577c5761577b615722565b5b50919050565b7f56616c7565206d7573742062652067726561746572207468616e203021000000600082015250565b60006157b8601d836146eb565b91506157c382615782565b602082019050919050565b600060208201905081810360008301526157e7816157ab565b9050919050565b7f50617469656e742068617320616c726561647920726567697374657265642100600082015250565b6000615824601f836146eb565b915061582f826157ee565b602082019050919050565b6000602082019050818103600083015261585381615817565b9050919050565b600082905092915050565b7f4e487b7100000000000000000000000000000000000000000000000000000000600052604160045260246000fd5b60008190508160005260206000209050919050565b60006020601f8301049050919050565b600082821b905092915050565b6000600883026158f67fffffffffffffffffffffffffffffffffffffffffffffffffffffffffffffffff826158b9565b61590086836158b9565b95508019841693508086168417925050509392505050565b6000819050919050565b600061593d6159386159338461466e565b615918565b61466e565b9050919050565b6000819050919050565b61595783615922565b61596b61596382615944565b8484546158c6565b825550505050565b600090565b615980615973565b61598b81848461594e565b505050565b5b818110156159af576159a4600082615978565b600181019050615991565b5050565b601f8211156159f4576159c581615894565b6159ce846158a9565b810160208510156159dd578190505b6159f16159e9856158a9565b830182615990565b50505b505050565b600082821c905092915050565b6000615a17600019846008026159f9565b1980831691505092915050565b6000615a308383615a06565b9150826002028217905092915050565b615a4a838361585a565b67ffffffffffffffff811115615a6357615a62615865565b5b615a6d8254615751565b615a788282856159b3565b6000601f831160018114615aa75760008415615a95578287013590505b615a9f8582615a24565b865550615b07565b601f198416615ab586615894565b60005b82811015615add57848901358255600182019150602085019450602081019050615ab8565b86831015615afa5784890135615af6601f891682615a06565b8355505b6001600288020188555050505b50505050505050565b600081549050615b1f81615751565b9050919050565b818103615b34575050615c0c565b615b3d82615b10565b67ffffffffffffffff811115615b5657615b55615865565b5b615b608254615751565b615b6b8282856159b3565b6000601f831160018114615b9a5760008415615b88578287015490505b615b928582615a24565b865550615c05565b601f198416615ba887615894565b9650615bb386615894565b60005b82811015615bdb57848901548255600182019150600185019450602081019050615bb6565b86831015615bf85784890154615bf4601f891682615a06565b8355505b6001600288020188555050505b5050505050505b565b7f4e487b7100000000000000000000000000000000000000000000000000000000600052601160045260246000fd5b6000615c488261466e565b91507fffffffffffffffffffffffffffffffffffffffffffffffffffffffffffffffff8203615c7a57615c79615c0e565b5b600182019050919050565b7f4e6f74206120646f63746f722100000000000000000000000000000000000000600082015250565b6000615cbb600d836146eb565b9150615cc682615c85565b602082019050919050565b60006020820190508181036000830152615cea81615cae565b9050919050565b7f446f63746f7220646f6573206e6f74206861766520617070726f76616c20746f60008201527f20747265617420746869732070617469656e7421000000000000000000000000602082015250565b6000615d4d6034836146eb565b9150615d5882615cf1565b604082019050919050565b60006020820190508181036000830152615d7c81615d40565b9050919050565b7f4d656469636174696f6e206e6f74207265676973746572656421000000000000600082015250565b6000615db9601a836146eb565b9150615dc482615d83565b602082019050919050565b60006020820190508181036000830152615de881615dac565b9050919050565b7f4e6f7420612070617469656e7421000000000000000000000000000000000000600082015250565b6000615e25600e836146eb565b9150615e3082615def565b602082019050919050565b60006020820190508181036000830152615e5481615e18565b9050919050565b7f446570656e64656e63792020616c726561647920726567697374657265642100600082015250565b6000615e91601f836146eb565b9150615e9c82615e5b565b602082019050919050565b60006020820190508181036000830152615ec081615e84565b9050919050565b615ed0826146e0565b67ffffffffffffffff811115615ee957615ee8615865565b5b615ef38254615751565b615efe8282856159b3565b600060209050601f831160018114615f315760008415615f1f578287015190505b615f298582615a24565b865550615f91565b601f198416615f3f86615894565b60005b82811015615f6757848901518255600182019150602085019450602081019050615f42565b86831015615f845784890151615f80601f891682615a06565b8355505b6001600288020188555050505b505050505050565b7f446f63746f722068617320616c72656164792072656769737465726564210000600082015250565b6000615fcf601e836146eb565b9150615fda82615f99565b602082019050919050565b60006020820190508181036000830152615ffe81615fc2565b9050919050565b7f4d656469636174696f6e20616c72656164792072656769737465726564210000600082015250565b600061603b601e836146eb565b915061604682616005565b602082019050919050565b6000602082019050818103600083015261606a8161602e565b9050919050565b7f5468697320646f63746f72206973206e6f742072656769737465726564210000600082015250565b60006160a7601e836146eb565b91506160b282616071565b602082019050919050565b600060208201905081810360008301526160d68161609a565b9050919050565b7f4578616d696e6174696f6e20526573756c7420616c72656164792075706c6f6160008201527f6465642100000000000000000000000000000000000000000000000000000000602082015250565b60006161396024836146eb565b9150616144826160dd565b604082019050919050565b600060208201905081810360008301526161688161612c565b905091905056fea264697066735822122008296da7e7f8f479095813b4bf4924c7a0ec91f52deb6ea5c72d95dfa3d6e79664736f6c63430008110033",
  "linkReferences": {},
  "deployedLinkReferences": {}
}