{
  "_format": "hh-sol-artifact-1",
  "contractName": "PatientHealthRecord",
  "sourceName": "contracts/PatientHealthRecord.sol",
  "abi": [
    {
      "inputs": [
        {
          "internalType": "string",
          "name": "_newCaseSummary",
          "type": "string"
        },
        {
          "internalType": "uint256",
          "name": "patientID",
          "type": "uint256"
        }
      ],
      "name": "addCaseSummary",
      "outputs": [],
      "stateMutability": "nonpayable",
      "type": "function"
    },
    {
      "inputs": [
        {
          "internalType": "string",
          "name": "_newExaminationResult",
          "type": "string"
        },
        {
          "internalType": "uint256",
          "name": "patientID",
          "type": "uint256"
        }
      ],
      "name": "addExaminationResult",
      "outputs": [],
      "stateMutability": "nonpayable",
      "type": "function"
    },
    {
      "inputs": [
        {
          "internalType": "uint256",
          "name": "_medicationID",
          "type": "uint256"
        },
        {
          "internalType": "string",
          "name": "_medicationName",
          "type": "string"
        },
        {
          "internalType": "string",
          "name": "_expirationDate",
          "type": "string"
        },
        {
          "internalType": "string",
          "name": "_dosage",
          "type": "string"
        },
        {
          "internalType": "uint256",
          "name": "_price",
          "type": "uint256"
        }
      ],
      "name": "addMedication",
      "outputs": [],
      "stateMutability": "nonpayable",
      "type": "function"
    },
    {
      "inputs": [
        {
          "internalType": "uint256",
          "name": "_patientID",
          "type": "uint256"
        },
        {
          "internalType": "uint256",
          "name": "_medicineID",
          "type": "uint256"
        }
      ],
      "name": "addPrescription",
      "outputs": [],
      "stateMutability": "nonpayable",
      "type": "function"
    },
    {
      "inputs": [
        {
          "internalType": "address",
          "name": "",
          "type": "address"
        }
      ],
      "name": "addressToDoctor",
      "outputs": [
        {
          "internalType": "uint256",
          "name": "doctorID",
          "type": "uint256"
        },
        {
          "internalType": "string",
          "name": "doctorName",
          "type": "string"
        },
        {
          "internalType": "string",
          "name": "specialty",
          "type": "string"
        },
        {
          "internalType": "string",
          "name": "workplace",
          "type": "string"
        }
      ],
      "stateMutability": "view",
      "type": "function"
    },
    {
      "inputs": [
        {
          "internalType": "uint256",
          "name": "_doctorID",
          "type": "uint256"
        }
      ],
      "name": "approveDoctor",
      "outputs": [],
      "stateMutability": "nonpayable",
      "type": "function"
    },
    {
      "inputs": [],
      "name": "counterDoctorID",
      "outputs": [
        {
          "internalType": "uint256",
          "name": "",
          "type": "uint256"
        }
      ],
      "stateMutability": "view",
      "type": "function"
    },
    {
      "inputs": [],
      "name": "counterPatientID",
      "outputs": [
        {
          "internalType": "uint256",
          "name": "",
          "type": "uint256"
        }
      ],
      "stateMutability": "view",
      "type": "function"
    },
    {
      "inputs": [
        {
          "internalType": "uint256",
          "name": "_doctorId",
          "type": "uint256"
        }
      ],
      "name": "getDoctorDetails",
      "outputs": [
        {
          "components": [
            {
              "internalType": "uint256",
              "name": "doctorID",
              "type": "uint256"
            },
            {
              "internalType": "string",
              "name": "doctorName",
              "type": "string"
            },
            {
              "internalType": "string",
              "name": "specialty",
              "type": "string"
            },
            {
              "internalType": "string",
              "name": "workplace",
              "type": "string"
            }
          ],
          "internalType": "struct PatientHealthRecord.Doctor",
          "name": "",
          "type": "tuple"
        }
      ],
      "stateMutability": "view",
      "type": "function"
    },
    {
      "inputs": [
        {
          "internalType": "uint256",
          "name": "",
          "type": "uint256"
        }
      ],
      "name": "idToMedication",
      "outputs": [
        {
          "internalType": "uint256",
          "name": "medicationId",
          "type": "uint256"
        },
        {
          "internalType": "string",
          "name": "medicationName",
          "type": "string"
        },
        {
          "internalType": "string",
          "name": "expirationDate",
          "type": "string"
        },
        {
          "internalType": "string",
          "name": "dosage",
          "type": "string"
        },
        {
          "internalType": "uint256",
          "name": "price",
          "type": "uint256"
        }
      ],
      "stateMutability": "view",
      "type": "function"
    },
    {
      "inputs": [
        {
          "internalType": "uint256",
          "name": "",
          "type": "uint256"
        }
      ],
      "name": "medicationIdToBool",
      "outputs": [
        {
          "internalType": "bool",
          "name": "",
          "type": "bool"
        }
      ],
      "stateMutability": "view",
      "type": "function"
    },
    {
      "inputs": [
        {
          "internalType": "string",
          "name": "_name",
          "type": "string"
        },
        {
          "internalType": "string",
          "name": "_specialty",
          "type": "string"
        },
        {
          "internalType": "string",
          "name": "_workplace",
          "type": "string"
        }
      ],
      "name": "registerNewDoctor",
      "outputs": [],
      "stateMutability": "nonpayable",
      "type": "function"
    },
    {
      "inputs": [
        {
          "internalType": "string",
          "name": "_name",
          "type": "string"
        },
        {
          "internalType": "enum PatientHealthRecord.Gender",
          "name": "_gender",
          "type": "uint8"
        },
        {
          "internalType": "uint8",
          "name": "_age",
          "type": "uint8"
        }
      ],
      "name": "registerNewPatient",
      "outputs": [],
      "stateMutability": "nonpayable",
      "type": "function"
    },
    {
      "inputs": [
        {
          "internalType": "uint8",
          "name": "_age",
          "type": "uint8"
        }
      ],
      "name": "updateMyAge",
      "outputs": [],
      "stateMutability": "nonpayable",
      "type": "function"
    },
    {
      "inputs": [
        {
          "internalType": "address",
          "name": "",
          "type": "address"
        }
      ],
      "name": "verifiedDoctor",
      "outputs": [
        {
          "internalType": "bool",
          "name": "",
          "type": "bool"
        }
      ],
      "stateMutability": "view",
      "type": "function"
    },
    {
      "inputs": [],
      "name": "viewListOfDoctors",
      "outputs": [
        {
          "components": [
            {
              "internalType": "uint256",
              "name": "doctorID",
              "type": "uint256"
            },
            {
              "internalType": "string",
              "name": "doctorName",
              "type": "string"
            },
            {
              "internalType": "string",
              "name": "specialty",
              "type": "string"
            },
            {
              "internalType": "string",
              "name": "workplace",
              "type": "string"
            }
          ],
          "internalType": "struct PatientHealthRecord.Doctor[]",
          "name": "",
          "type": "tuple[]"
        }
      ],
      "stateMutability": "view",
      "type": "function"
    },
    {
      "inputs": [],
      "name": "viewListofMedications",
      "outputs": [
        {
          "components": [
            {
              "internalType": "uint256",
              "name": "medicationId",
              "type": "uint256"
            },
            {
              "internalType": "string",
              "name": "medicationName",
              "type": "string"
            },
            {
              "internalType": "string",
              "name": "expirationDate",
              "type": "string"
            },
            {
              "internalType": "string",
              "name": "dosage",
              "type": "string"
            },
            {
              "internalType": "uint256",
              "name": "price",
              "type": "uint256"
            }
          ],
          "internalType": "struct PatientHealthRecord.Medication[]",
          "name": "",
          "type": "tuple[]"
        }
      ],
      "stateMutability": "view",
      "type": "function"
    },
    {
      "inputs": [],
      "name": "viewMyRecords",
      "outputs": [
        {
          "components": [
            {
              "internalType": "uint256",
              "name": "patientID",
              "type": "uint256"
            },
            {
              "internalType": "string",
              "name": "patientName",
              "type": "string"
            },
            {
              "internalType": "enum PatientHealthRecord.Gender",
              "name": "patientGender",
              "type": "uint8"
            },
            {
              "internalType": "uint8",
              "name": "patientAge",
              "type": "uint8"
            },
            {
              "internalType": "string[]",
              "name": "caseSummaries",
              "type": "string[]"
            },
            {
              "internalType": "string[]",
              "name": "examinationResults",
              "type": "string[]"
            },
            {
              "components": [
                {
                  "internalType": "uint256",
                  "name": "medicationId",
                  "type": "uint256"
                },
                {
                  "internalType": "string",
                  "name": "medicationName",
                  "type": "string"
                },
                {
                  "internalType": "string",
                  "name": "expirationDate",
                  "type": "string"
                },
                {
                  "internalType": "string",
                  "name": "dosage",
                  "type": "string"
                },
                {
                  "internalType": "uint256",
                  "name": "price",
                  "type": "uint256"
                }
              ],
              "internalType": "struct PatientHealthRecord.Medication[]",
              "name": "prescriptions",
              "type": "tuple[]"
            }
          ],
          "internalType": "struct PatientHealthRecord.Patient",
          "name": "",
          "type": "tuple"
        }
      ],
      "stateMutability": "view",
      "type": "function"
    },
    {
      "inputs": [
        {
          "internalType": "uint256",
          "name": "_patientID",
          "type": "uint256"
        }
      ],
      "name": "viewPatientRecords",
      "outputs": [
        {
          "components": [
            {
              "internalType": "uint256",
              "name": "patientID",
              "type": "uint256"
            },
            {
              "internalType": "string",
              "name": "patientName",
              "type": "string"
            },
            {
              "internalType": "enum PatientHealthRecord.Gender",
              "name": "patientGender",
              "type": "uint8"
            },
            {
              "internalType": "uint8",
              "name": "patientAge",
              "type": "uint8"
            },
            {
              "internalType": "string[]",
              "name": "caseSummaries",
              "type": "string[]"
            },
            {
              "internalType": "string[]",
              "name": "examinationResults",
              "type": "string[]"
            },
            {
              "components": [
                {
                  "internalType": "uint256",
                  "name": "medicationId",
                  "type": "uint256"
                },
                {
                  "internalType": "string",
                  "name": "medicationName",
                  "type": "string"
                },
                {
                  "internalType": "string",
                  "name": "expirationDate",
                  "type": "string"
                },
                {
                  "internalType": "string",
                  "name": "dosage",
                  "type": "string"
                },
                {
                  "internalType": "uint256",
                  "name": "price",
                  "type": "uint256"
                }
              ],
              "internalType": "struct PatientHealthRecord.Medication[]",
              "name": "prescriptions",
              "type": "tuple[]"
            }
          ],
          "internalType": "struct PatientHealthRecord.Patient",
          "name": "",
          "type": "tuple"
        }
      ],
      "stateMutability": "view",
      "type": "function"
    }
  ],
  "bytecode": "0x608060405260016000556001805534801561001957600080fd5b50614b36806100296000396000f3fe608060405234801561001057600080fd5b50600436106101215760003560e01c80634f5bdf1c116100ad578063827219bb11610071578063827219bb1461031b5780638a63bd181461034b5780638c691a4b14610369578063ad86ac8314610387578063b3799fe3146103a557610121565b80634f5bdf1c146102775780636c3c8c62146102935780636f0539c6146102af5780637883d4a2146102cb5780637f18e263146102e757610121565b80631f52e461116100f45780631f52e461146101c15780633b6d5b8c146101dd5780634162aa6d1461020d57806344f6fe6f1461023d578063462160981461025b57610121565b806305a71ab4146101265780630ec785a414610156578063168901c714610189578063181f4976146101a5575b600080fd5b610140600480360381019061013b9190613569565b6103c3565b60405161014d91906135b1565b60405180910390f35b610170600480360381019061016b919061362a565b6103e3565b60405161018094939291906136f6565b60405180910390f35b6101a3600480360381019061019e9190613813565b6105ab565b005b6101bf60048036038101906101ba9190613887565b6108f7565b005b6101db60048036038101906101d691906138c7565b610c8f565b005b6101f760048036038101906101f29190613569565b610f21565b60405161020491906139f1565b60405180910390f35b6102276004803603810190610222919061362a565b61124b565b60405161023491906135b1565b60405180910390f35b61024561126b565b6040516102529190613b46565b60405180910390f35b61027560048036038101906102709190613b68565b61151d565b005b610291600480360381019061028c9190613c1c565b611778565b005b6102ad60048036038101906102a89190613c49565b6118b1565b005b6102c960048036038101906102c491906138c7565b611c54565b005b6102e560048036038101906102e09190613569565b611ee6565b005b61030160048036038101906102fc9190613569565b61214f565b604051610312959493929190613d25565b60405180910390f35b61033560048036038101906103309190613569565b61231d565b60405161034291906140cc565b60405180910390f35b610353612a4e565b6040516103609190614174565b60405180910390f35b610371612d0a565b60405161037e91906140cc565b60405180910390f35b61038f6132c3565b60405161039c9190614196565b60405180910390f35b6103ad6132c9565b6040516103ba9190614196565b60405180910390f35b600d6020528060005260406000206000915054906101000a900460ff1681565b600860205280600052604060002060009150905080600001549080600101805461040c906141e0565b80601f0160208091040260200160405190810160405280929190818152602001828054610438906141e0565b80156104855780601f1061045a57610100808354040283529160200191610485565b820191906000526020600020905b81548152906001019060200180831161046857829003601f168201915b50505050509080600201805461049a906141e0565b80601f01602080910402602001604051908101604052809291908181526020018280546104c6906141e0565b80156105135780601f106104e857610100808354040283529160200191610513565b820191906000526020600020905b8154815290600101906020018083116104f657829003601f168201915b505050505090806003018054610528906141e0565b80601f0160208091040260200160405190810160405280929190818152602001828054610554906141e0565b80156105a15780601f10610576576101008083540402835291602001916105a1565b820191906000526020600020905b81548152906001019060200180831161058457829003601f168201915b5050505050905084565b8060ff16600081116105f2576040517f08c379a00000000000000000000000000000000000000000000000000000000081526004016105e99061425d565b60405180910390fd5b60001515600560003373ffffffffffffffffffffffffffffffffffffffff1673ffffffffffffffffffffffffffffffffffffffff16815260200190815260200160002060009054906101000a900460ff16151514610685576040517f08c379a000000000000000000000000000000000000000000000000000000000815260040161067c906142c9565b60405180910390fd5b6000600760003373ffffffffffffffffffffffffffffffffffffffff1673ffffffffffffffffffffffffffffffffffffffff1681526020019081526020016000209050600054816000018190555085858260010191826106e69291906144cf565b50838160020160006101000a81548160ff0219169083600181111561070e5761070d613d8d565b5b0217905550828160020160016101000a81548160ff021916908360ff16021790555033600960008054815260200190815260200160002060006101000a81548173ffffffffffffffffffffffffffffffffffffffff021916908373ffffffffffffffffffffffffffffffffffffffff160217905550600281908060018154018082558091505060019003906000526020600020906006020160009091909190915060008201548160000155600182018160010190816107cd91906145b5565b506002820160009054906101000a900460ff168160020160006101000a81548160ff0219169083600181111561080657610805613d8d565b5b02179055506002820160019054906101000a900460ff168160020160016101000a81548160ff021916908360ff160217905550600382018160030190805461084f9291906132cf565b5060048201816004019080546108669291906132cf565b50600582018160050190805461087d92919061332c565b5050506001600560003373ffffffffffffffffffffffffffffffffffffffff1673ffffffffffffffffffffffffffffffffffffffff16815260200190815260200160002060006101000a81548160ff0219169083151502179055506000808154809291906108ea906146cc565b9190505550505050505050565b60011515600660003373ffffffffffffffffffffffffffffffffffffffff1673ffffffffffffffffffffffffffffffffffffffff16815260200190815260200160002060009054906101000a900460ff1615151461098a576040517f08c379a000000000000000000000000000000000000000000000000000000000815260040161098190614760565b60405180910390fd5b81600b60003373ffffffffffffffffffffffffffffffffffffffff1673ffffffffffffffffffffffffffffffffffffffff16815260200190815260200160002060006009600084815260200190815260200160002060009054906101000a900473ffffffffffffffffffffffffffffffffffffffff1673ffffffffffffffffffffffffffffffffffffffff1673ffffffffffffffffffffffffffffffffffffffff16815260200190815260200160002060009054906101000a900460ff16610a87576040517f08c379a0000000000000000000000000000000000000000000000000000000008152600401610a7e906147f2565b60405180910390fd5b8260008111610acb576040517f08c379a0000000000000000000000000000000000000000000000000000000008152600401610ac29061425d565b60405180910390fd5b8260008111610b0f576040517f08c379a0000000000000000000000000000000000000000000000000000000008152600401610b069061425d565b60405180910390fd5b60011515600d600086815260200190815260200160002060009054906101000a900460ff16151514610b76576040517f08c379a0000000000000000000000000000000000000000000000000000000008152600401610b6d9061485e565b60405180910390fd5b6000600760006009600089815260200190815260200160002060009054906101000a900473ffffffffffffffffffffffffffffffffffffffff1673ffffffffffffffffffffffffffffffffffffffff1673ffffffffffffffffffffffffffffffffffffffff16815260200190815260200160002090506000600c60008781526020019081526020016000209050816005018190806001815401808255809150506001900390600052602060002090600502016000909190919091506000820154816000015560018201816001019081610c4f91906145b5565b5060028201816002019081610c6491906145b5565b5060038201816003019081610c7991906145b5565b5060048201548160040155505050505050505050565b60011515600660003373ffffffffffffffffffffffffffffffffffffffff1673ffffffffffffffffffffffffffffffffffffffff16815260200190815260200160002060009054906101000a900460ff16151514610d22576040517f08c379a0000000000000000000000000000000000000000000000000000000008152600401610d1990614760565b60405180910390fd5b80600b60003373ffffffffffffffffffffffffffffffffffffffff1673ffffffffffffffffffffffffffffffffffffffff16815260200190815260200160002060006009600084815260200190815260200160002060009054906101000a900473ffffffffffffffffffffffffffffffffffffffff1673ffffffffffffffffffffffffffffffffffffffff1673ffffffffffffffffffffffffffffffffffffffff16815260200190815260200160002060009054906101000a900460ff16610e1f576040517f08c379a0000000000000000000000000000000000000000000000000000000008152600401610e16906147f2565b60405180910390fd5b8160008111610e63576040517f08c379a0000000000000000000000000000000000000000000000000000000008152600401610e5a9061425d565b60405180910390fd5b60006009600085815260200190815260200160002060009054906101000a900473ffffffffffffffffffffffffffffffffffffffff169050600760008273ffffffffffffffffffffffffffffffffffffffff1673ffffffffffffffffffffffffffffffffffffffff168152602001908152602001600020600301868690918060018154018082558091505060019003906000526020600020016000909192909192909192909192509182610f189291906144cf565b50505050505050565b610f296133d7565b8160008111610f6d576040517f08c379a0000000000000000000000000000000000000000000000000000000008152600401610f649061425d565b60405180910390fd5b60011515600560003373ffffffffffffffffffffffffffffffffffffffff1673ffffffffffffffffffffffffffffffffffffffff16815260200190815260200160002060009054906101000a900460ff16151514611000576040517f08c379a0000000000000000000000000000000000000000000000000000000008152600401610ff7906148ca565b60405180910390fd5b6000600a600085815260200190815260200160002060009054906101000a900473ffffffffffffffffffffffffffffffffffffffff169050600860008273ffffffffffffffffffffffffffffffffffffffff1673ffffffffffffffffffffffffffffffffffffffff1681526020019081526020016000206040518060800160405290816000820154815260200160018201805461109c906141e0565b80601f01602080910402602001604051908101604052809291908181526020018280546110c8906141e0565b80156111155780601f106110ea57610100808354040283529160200191611115565b820191906000526020600020905b8154815290600101906020018083116110f857829003601f168201915b5050505050815260200160028201805461112e906141e0565b80601f016020809104026020016040519081016040528092919081815260200182805461115a906141e0565b80156111a75780601f1061117c576101008083540402835291602001916111a7565b820191906000526020600020905b81548152906001019060200180831161118a57829003601f168201915b505050505081526020016003820180546111c0906141e0565b80601f01602080910402602001604051908101604052809291908181526020018280546111ec906141e0565b80156112395780601f1061120e57610100808354040283529160200191611239565b820191906000526020600020905b81548152906001019060200180831161121c57829003601f168201915b50505050508152505092505050919050565b60066020528060005260406000206000915054906101000a900460ff1681565b606060011515600560003373ffffffffffffffffffffffffffffffffffffffff1673ffffffffffffffffffffffffffffffffffffffff16815260200190815260200160002060009054906101000a900460ff16151514611300576040517f08c379a00000000000000000000000000000000000000000000000000000000081526004016112f7906148ca565b60405180910390fd5b6003805480602002602001604051908101604052809291908181526020016000905b8282101561151457838290600052602060002090600402016040518060800160405290816000820154815260200160018201805461135f906141e0565b80601f016020809104026020016040519081016040528092919081815260200182805461138b906141e0565b80156113d85780601f106113ad576101008083540402835291602001916113d8565b820191906000526020600020905b8154815290600101906020018083116113bb57829003601f168201915b505050505081526020016002820180546113f1906141e0565b80601f016020809104026020016040519081016040528092919081815260200182805461141d906141e0565b801561146a5780601f1061143f5761010080835404028352916020019161146a565b820191906000526020600020905b81548152906001019060200180831161144d57829003601f168201915b50505050508152602001600382018054611483906141e0565b80601f01602080910402602001604051908101604052809291908181526020018280546114af906141e0565b80156114fc5780601f106114d1576101008083540402835291602001916114fc565b820191906000526020600020905b8154815290600101906020018083116114df57829003601f168201915b50505050508152505081526020019060010190611322565b50505050905090565b600660003373ffffffffffffffffffffffffffffffffffffffff1673ffffffffffffffffffffffffffffffffffffffff16815260200190815260200160002060009054906101000a900460ff16156115aa576040517f08c379a00000000000000000000000000000000000000000000000000000000081526004016115a190614936565b60405180910390fd5b6001600660003373ffffffffffffffffffffffffffffffffffffffff1673ffffffffffffffffffffffffffffffffffffffff16815260200190815260200160002060006101000a81548160ff0219169083151502179055506000600860003373ffffffffffffffffffffffffffffffffffffffff1673ffffffffffffffffffffffffffffffffffffffff1681526020019081526020016000209050600154816000018190555086868260010191826116639291906144cf565b5084848260020191826116779291906144cf565b50828282600301918261168b9291906144cf565b50600381908060018154018082558091505060019003906000526020600020906004020160009091909190915060008201548160000155600182018160010190816116d691906145b5565b50600282018160020190816116eb91906145b5565b506003820181600301908161170091906145b5565b50505033600a6000600154815260200190815260200160002060006101000a81548173ffffffffffffffffffffffffffffffffffffffff021916908373ffffffffffffffffffffffffffffffffffffffff1602179055506001600081548092919061176a906146cc565b919050555050505050505050565b8060ff16600081116117bf576040517f08c379a00000000000000000000000000000000000000000000000000000000081526004016117b69061425d565b60405180910390fd5b60011515600560003373ffffffffffffffffffffffffffffffffffffffff1673ffffffffffffffffffffffffffffffffffffffff16815260200190815260200160002060009054906101000a900460ff16151514611852576040517f08c379a0000000000000000000000000000000000000000000000000000000008152600401611849906148ca565b60405180910390fd5b81600760003373ffffffffffffffffffffffffffffffffffffffff1673ffffffffffffffffffffffffffffffffffffffff16815260200190815260200160002060020160016101000a81548160ff021916908360ff1602179055505050565b60011515600660003373ffffffffffffffffffffffffffffffffffffffff1673ffffffffffffffffffffffffffffffffffffffff16815260200190815260200160002060009054906101000a900460ff16151514611944576040517f08c379a000000000000000000000000000000000000000000000000000000000815260040161193b90614760565b60405180910390fd5b8760008111611988576040517f08c379a000000000000000000000000000000000000000000000000000000000815260040161197f9061425d565b60405180910390fd5b81600081116119cc576040517f08c379a00000000000000000000000000000000000000000000000000000000081526004016119c39061425d565b60405180910390fd5b60001515600d60008c815260200190815260200160002060009054906101000a900460ff16151514611a33576040517f08c379a0000000000000000000000000000000000000000000000000000000008152600401611a2a906149a2565b60405180910390fd5b6001600d60008c815260200190815260200160002060006101000a81548160ff02191690831515021790555060006040518060a001604052808c81526020018b8b8080601f016020809104026020016040519081016040528093929190818152602001838380828437600081840152601f19601f82011690508083019250505050505050815260200189898080601f016020809104026020016040519081016040528093929190818152602001838380828437600081840152601f19601f82011690508083019250505050505050815260200187878080601f016020809104026020016040519081016040528093929190818152602001838380828437600081840152601f19601f82011690508083019250505050505050815260200185815250905080600c60008d8152602001908152602001600020600082015181600001556020820151816001019081611b8991906149c2565b506040820151816002019081611b9f91906149c2565b506060820151816003019081611bb591906149c2565b50608082015181600401559050506004819080600181540180825580915050600190039060005260206000209060050201600090919091909150600082015181600001556020820151816001019081611c0e91906149c2565b506040820151816002019081611c2491906149c2565b506060820151816003019081611c3a91906149c2565b506080820151816004015550505050505050505050505050565b60011515600660003373ffffffffffffffffffffffffffffffffffffffff1673ffffffffffffffffffffffffffffffffffffffff16815260200190815260200160002060009054906101000a900460ff16151514611ce7576040517f08c379a0000000000000000000000000000000000000000000000000000000008152600401611cde90614760565b60405180910390fd5b80600b60003373ffffffffffffffffffffffffffffffffffffffff1673ffffffffffffffffffffffffffffffffffffffff16815260200190815260200160002060006009600084815260200190815260200160002060009054906101000a900473ffffffffffffffffffffffffffffffffffffffff1673ffffffffffffffffffffffffffffffffffffffff1673ffffffffffffffffffffffffffffffffffffffff16815260200190815260200160002060009054906101000a900460ff16611de4576040517f08c379a0000000000000000000000000000000000000000000000000000000008152600401611ddb906147f2565b60405180910390fd5b8160008111611e28576040517f08c379a0000000000000000000000000000000000000000000000000000000008152600401611e1f9061425d565b60405180910390fd5b60006009600085815260200190815260200160002060009054906101000a900473ffffffffffffffffffffffffffffffffffffffff169050600760008273ffffffffffffffffffffffffffffffffffffffff1673ffffffffffffffffffffffffffffffffffffffff168152602001908152602001600020600401868690918060018154018082558091505060019003906000526020600020016000909192909192909192909192509182611edd9291906144cf565b50505050505050565b8060008111611f2a576040517f08c379a0000000000000000000000000000000000000000000000000000000008152600401611f219061425d565b60405180910390fd5b60011515600560003373ffffffffffffffffffffffffffffffffffffffff1673ffffffffffffffffffffffffffffffffffffffff16815260200190815260200160002060009054906101000a900460ff16151514611fbd576040517f08c379a0000000000000000000000000000000000000000000000000000000008152600401611fb4906148ca565b60405180910390fd5b6001151560066000600a600086815260200190815260200160002060009054906101000a900473ffffffffffffffffffffffffffffffffffffffff1673ffffffffffffffffffffffffffffffffffffffff1673ffffffffffffffffffffffffffffffffffffffff16815260200190815260200160002060009054906101000a900460ff16151514612083576040517f08c379a000000000000000000000000000000000000000000000000000000000815260040161207a90614ae0565b60405180910390fd5b6001600b6000600a600086815260200190815260200160002060009054906101000a900473ffffffffffffffffffffffffffffffffffffffff1673ffffffffffffffffffffffffffffffffffffffff1673ffffffffffffffffffffffffffffffffffffffff16815260200190815260200160002060003373ffffffffffffffffffffffffffffffffffffffff1673ffffffffffffffffffffffffffffffffffffffff16815260200190815260200160002060006101000a81548160ff0219169083151502179055505050565b600c602052806000526040600020600091509050806000015490806001018054612178906141e0565b80601f01602080910402602001604051908101604052809291908181526020018280546121a4906141e0565b80156121f15780601f106121c6576101008083540402835291602001916121f1565b820191906000526020600020905b8154815290600101906020018083116121d457829003601f168201915b505050505090806002018054612206906141e0565b80601f0160208091040260200160405190810160405280929190818152602001828054612232906141e0565b801561227f5780601f106122545761010080835404028352916020019161227f565b820191906000526020600020905b81548152906001019060200180831161226257829003601f168201915b505050505090806003018054612294906141e0565b80601f01602080910402602001604051908101604052809291908181526020018280546122c0906141e0565b801561230d5780601f106122e25761010080835404028352916020019161230d565b820191906000526020600020905b8154815290600101906020018083116122f057829003601f168201915b5050505050908060040154905085565b6123256133ff565b60011515600660003373ffffffffffffffffffffffffffffffffffffffff1673ffffffffffffffffffffffffffffffffffffffff16815260200190815260200160002060009054906101000a900460ff161515146123b8576040517f08c379a00000000000000000000000000000000000000000000000000000000081526004016123af90614760565b60405180910390fd5b81600b60003373ffffffffffffffffffffffffffffffffffffffff1673ffffffffffffffffffffffffffffffffffffffff16815260200190815260200160002060006009600084815260200190815260200160002060009054906101000a900473ffffffffffffffffffffffffffffffffffffffff1673ffffffffffffffffffffffffffffffffffffffff1673ffffffffffffffffffffffffffffffffffffffff16815260200190815260200160002060009054906101000a900460ff166124b5576040517f08c379a00000000000000000000000000000000000000000000000000000000081526004016124ac906147f2565b60405180910390fd5b82600081116124f9576040517f08c379a00000000000000000000000000000000000000000000000000000000081526004016124f09061425d565b60405180910390fd5b600760006009600087815260200190815260200160002060009054906101000a900473ffffffffffffffffffffffffffffffffffffffff1673ffffffffffffffffffffffffffffffffffffffff1673ffffffffffffffffffffffffffffffffffffffff1681526020019081526020016000206040518060e001604052908160008201548152602001600182018054612590906141e0565b80601f01602080910402602001604051908101604052809291908181526020018280546125bc906141e0565b80156126095780601f106125de57610100808354040283529160200191612609565b820191906000526020600020905b8154815290600101906020018083116125ec57829003601f168201915b505050505081526020016002820160009054906101000a900460ff16600181111561263757612636613d8d565b5b600181111561264957612648613d8d565b5b81526020016002820160019054906101000a900460ff1660ff1660ff16815260200160038201805480602002602001604051908101604052809291908181526020016000905b8282101561273b5783829060005260206000200180546126ae906141e0565b80601f01602080910402602001604051908101604052809291908181526020018280546126da906141e0565b80156127275780601f106126fc57610100808354040283529160200191612727565b820191906000526020600020905b81548152906001019060200180831161270a57829003601f168201915b50505050508152602001906001019061268f565b50505050815260200160048201805480602002602001604051908101604052809291908181526020016000905b82821015612814578382906000526020600020018054612787906141e0565b80601f01602080910402602001604051908101604052809291908181526020018280546127b3906141e0565b80156128005780601f106127d557610100808354040283529160200191612800565b820191906000526020600020905b8154815290600101906020018083116127e357829003601f168201915b505050505081526020019060010190612768565b50505050815260200160058201805480602002602001604051908101604052809291908181526020016000905b82821015612a3d57838290600052602060002090600502016040518060a00160405290816000820154815260200160018201805461287e906141e0565b80601f01602080910402602001604051908101604052809291908181526020018280546128aa906141e0565b80156128f75780601f106128cc576101008083540402835291602001916128f7565b820191906000526020600020905b8154815290600101906020018083116128da57829003601f168201915b50505050508152602001600282018054612910906141e0565b80601f016020809104026020016040519081016040528092919081815260200182805461293c906141e0565b80156129895780601f1061295e57610100808354040283529160200191612989565b820191906000526020600020905b81548152906001019060200180831161296c57829003601f168201915b505050505081526020016003820180546129a2906141e0565b80601f01602080910402602001604051908101604052809291908181526020018280546129ce906141e0565b8015612a1b5780601f106129f057610100808354040283529160200191612a1b565b820191906000526020600020905b8154815290600101906020018083116129fe57829003601f168201915b5050505050815260200160048201548152505081526020019060010190612841565b505050508152505092505050919050565b606060011515600660003373ffffffffffffffffffffffffffffffffffffffff1673ffffffffffffffffffffffffffffffffffffffff16815260200190815260200160002060009054906101000a900460ff16151514612ae3576040517f08c379a0000000000000000000000000000000000000000000000000000000008152600401612ada90614760565b60405180910390fd5b6004805480602002602001604051908101604052809291908181526020016000905b82821015612d0157838290600052602060002090600502016040518060a001604052908160008201548152602001600182018054612b42906141e0565b80601f0160208091040260200160405190810160405280929190818152602001828054612b6e906141e0565b8015612bbb5780601f10612b9057610100808354040283529160200191612bbb565b820191906000526020600020905b815481529060010190602001808311612b9e57829003601f168201915b50505050508152602001600282018054612bd4906141e0565b80601f0160208091040260200160405190810160405280929190818152602001828054612c00906141e0565b8015612c4d5780601f10612c2257610100808354040283529160200191612c4d565b820191906000526020600020905b815481529060010190602001808311612c3057829003601f168201915b50505050508152602001600382018054612c66906141e0565b80601f0160208091040260200160405190810160405280929190818152602001828054612c92906141e0565b8015612cdf5780601f10612cb457610100808354040283529160200191612cdf565b820191906000526020600020905b815481529060010190602001808311612cc257829003601f168201915b5050505050815260200160048201548152505081526020019060010190612b05565b50505050905090565b612d126133ff565b60011515600560003373ffffffffffffffffffffffffffffffffffffffff1673ffffffffffffffffffffffffffffffffffffffff16815260200190815260200160002060009054906101000a900460ff16151514612da5576040517f08c379a0000000000000000000000000000000000000000000000000000000008152600401612d9c906148ca565b60405180910390fd5b600760003373ffffffffffffffffffffffffffffffffffffffff1673ffffffffffffffffffffffffffffffffffffffff1681526020019081526020016000206040518060e001604052908160008201548152602001600182018054612e09906141e0565b80601f0160208091040260200160405190810160405280929190818152602001828054612e35906141e0565b8015612e825780601f10612e5757610100808354040283529160200191612e82565b820191906000526020600020905b815481529060010190602001808311612e6557829003601f168201915b505050505081526020016002820160009054906101000a900460ff166001811115612eb057612eaf613d8d565b5b6001811115612ec257612ec1613d8d565b5b81526020016002820160019054906101000a900460ff1660ff1660ff16815260200160038201805480602002602001604051908101604052809291908181526020016000905b82821015612fb4578382906000526020600020018054612f27906141e0565b80601f0160208091040260200160405190810160405280929190818152602001828054612f53906141e0565b8015612fa05780601f10612f7557610100808354040283529160200191612fa0565b820191906000526020600020905b815481529060010190602001808311612f8357829003601f168201915b505050505081526020019060010190612f08565b50505050815260200160048201805480602002602001604051908101604052809291908181526020016000905b8282101561308d578382906000526020600020018054613000906141e0565b80601f016020809104026020016040519081016040528092919081815260200182805461302c906141e0565b80156130795780601f1061304e57610100808354040283529160200191613079565b820191906000526020600020905b81548152906001019060200180831161305c57829003601f168201915b505050505081526020019060010190612fe1565b50505050815260200160058201805480602002602001604051908101604052809291908181526020016000905b828210156132b657838290600052602060002090600502016040518060a0016040529081600082015481526020016001820180546130f7906141e0565b80601f0160208091040260200160405190810160405280929190818152602001828054613123906141e0565b80156131705780601f1061314557610100808354040283529160200191613170565b820191906000526020600020905b81548152906001019060200180831161315357829003601f168201915b50505050508152602001600282018054613189906141e0565b80601f01602080910402602001604051908101604052809291908181526020018280546131b5906141e0565b80156132025780601f106131d757610100808354040283529160200191613202565b820191906000526020600020905b8154815290600101906020018083116131e557829003601f168201915b5050505050815260200160038201805461321b906141e0565b80601f0160208091040260200160405190810160405280929190818152602001828054613247906141e0565b80156132945780601f1061326957610100808354040283529160200191613294565b820191906000526020600020905b81548152906001019060200180831161327757829003601f168201915b50505050508152602001600482015481525050815260200190600101906130ba565b5050505081525050905090565b60015481565b60005481565b82805482825590600052602060002090810192821561331b5760005260206000209182015b8281111561331a578282908161330a91906145b5565b50916001019190600101906132f4565b5b5090506133289190613451565b5090565b8280548282559060005260206000209060050281019282156133c65760005260206000209160050282015b828111156133c5578282600082015481600001556001820181600101908161337f91906145b5565b506002820181600201908161339491906145b5565b50600382018160030190816133a991906145b5565b5060048201548160040155505091600501919060050190613357565b5b5090506133d39190613475565b5090565b6040518060800160405280600081526020016060815260200160608152602001606081525090565b6040518060e0016040528060008152602001606081526020016000600181111561342c5761342b613d8d565b5b8152602001600060ff1681526020016060815260200160608152602001606081525090565b5b80821115613471576000818161346891906134cc565b50600101613452565b5090565b5b808211156134c85760008082016000905560018201600061349791906134cc565b6002820160006134a791906134cc565b6003820160006134b791906134cc565b600482016000905550600501613476565b5090565b5080546134d8906141e0565b6000825580601f106134ea5750613509565b601f016020900490600052602060002090810190613508919061350c565b5b50565b5b8082111561352557600081600090555060010161350d565b5090565b600080fd5b600080fd5b6000819050919050565b61354681613533565b811461355157600080fd5b50565b6000813590506135638161353d565b92915050565b60006020828403121561357f5761357e613529565b5b600061358d84828501613554565b91505092915050565b60008115159050919050565b6135ab81613596565b82525050565b60006020820190506135c660008301846135a2565b92915050565b600073ffffffffffffffffffffffffffffffffffffffff82169050919050565b60006135f7826135cc565b9050919050565b613607816135ec565b811461361257600080fd5b50565b600081359050613624816135fe565b92915050565b6000602082840312156136405761363f613529565b5b600061364e84828501613615565b91505092915050565b61366081613533565b82525050565b600081519050919050565b600082825260208201905092915050565b60005b838110156136a0578082015181840152602081019050613685565b60008484015250505050565b6000601f19601f8301169050919050565b60006136c882613666565b6136d28185613671565b93506136e2818560208601613682565b6136eb816136ac565b840191505092915050565b600060808201905061370b6000830187613657565b818103602083015261371d81866136bd565b9050818103604083015261373181856136bd565b9050818103606083015261374581846136bd565b905095945050505050565b600080fd5b600080fd5b600080fd5b60008083601f84011261377557613774613750565b5b8235905067ffffffffffffffff81111561379257613791613755565b5b6020830191508360018202830111156137ae576137ad61375a565b5b9250929050565b600281106137c257600080fd5b50565b6000813590506137d4816137b5565b92915050565b600060ff82169050919050565b6137f0816137da565b81146137fb57600080fd5b50565b60008135905061380d816137e7565b92915050565b6000806000806060858703121561382d5761382c613529565b5b600085013567ffffffffffffffff81111561384b5761384a61352e565b5b6138578782880161375f565b9450945050602061386a878288016137c5565b925050604061387b878288016137fe565b91505092959194509250565b6000806040838503121561389e5761389d613529565b5b60006138ac85828601613554565b92505060206138bd85828601613554565b9150509250929050565b6000806000604084860312156138e0576138df613529565b5b600084013567ffffffffffffffff8111156138fe576138fd61352e565b5b61390a8682870161375f565b9350935050602061391d86828701613554565b9150509250925092565b61393081613533565b82525050565b600082825260208201905092915050565b600061395282613666565b61395c8185613936565b935061396c818560208601613682565b613975816136ac565b840191505092915050565b60006080830160008301516139986000860182613927565b50602083015184820360208601526139b08282613947565b915050604083015184820360408601526139ca8282613947565b915050606083015184820360608601526139e48282613947565b9150508091505092915050565b60006020820190508181036000830152613a0b8184613980565b905092915050565b600081519050919050565b600082825260208201905092915050565b6000819050602082019050919050565b6000608083016000830151613a576000860182613927565b5060208301518482036020860152613a6f8282613947565b91505060408301518482036040860152613a898282613947565b91505060608301518482036060860152613aa38282613947565b9150508091505092915050565b6000613abc8383613a3f565b905092915050565b6000602082019050919050565b6000613adc82613a13565b613ae68185613a1e565b935083602082028501613af885613a2f565b8060005b85811015613b345784840389528151613b158582613ab0565b9450613b2083613ac4565b925060208a01995050600181019050613afc565b50829750879550505050505092915050565b60006020820190508181036000830152613b608184613ad1565b905092915050565b60008060008060008060608789031215613b8557613b84613529565b5b600087013567ffffffffffffffff811115613ba357613ba261352e565b5b613baf89828a0161375f565b9650965050602087013567ffffffffffffffff811115613bd257613bd161352e565b5b613bde89828a0161375f565b9450945050604087013567ffffffffffffffff811115613c0157613c0061352e565b5b613c0d89828a0161375f565b92509250509295509295509295565b600060208284031215613c3257613c31613529565b5b6000613c40848285016137fe565b91505092915050565b60008060008060008060008060a0898b031215613c6957613c68613529565b5b6000613c778b828c01613554565b985050602089013567ffffffffffffffff811115613c9857613c9761352e565b5b613ca48b828c0161375f565b9750975050604089013567ffffffffffffffff811115613cc757613cc661352e565b5b613cd38b828c0161375f565b9550955050606089013567ffffffffffffffff811115613cf657613cf561352e565b5b613d028b828c0161375f565b93509350506080613d158b828c01613554565b9150509295985092959890939650565b600060a082019050613d3a6000830188613657565b8181036020830152613d4c81876136bd565b90508181036040830152613d6081866136bd565b90508181036060830152613d7481856136bd565b9050613d836080830184613657565b9695505050505050565b7f4e487b7100000000000000000000000000000000000000000000000000000000600052602160045260246000fd5b60028110613dcd57613dcc613d8d565b5b50565b6000819050613dde82613dbc565b919050565b6000613dee82613dd0565b9050919050565b613dfe81613de3565b82525050565b613e0d816137da565b82525050565b600081519050919050565b600082825260208201905092915050565b6000819050602082019050919050565b6000613e4b8383613947565b905092915050565b6000602082019050919050565b6000613e6b82613e13565b613e758185613e1e565b935083602082028501613e8785613e2f565b8060005b85811015613ec35784840389528151613ea48582613e3f565b9450613eaf83613e53565b925060208a01995050600181019050613e8b565b50829750879550505050505092915050565b600081519050919050565b600082825260208201905092915050565b6000819050602082019050919050565b600060a083016000830151613f196000860182613927565b5060208301518482036020860152613f318282613947565b91505060408301518482036040860152613f4b8282613947565b91505060608301518482036060860152613f658282613947565b9150506080830151613f7a6080860182613927565b508091505092915050565b6000613f918383613f01565b905092915050565b6000602082019050919050565b6000613fb182613ed5565b613fbb8185613ee0565b935083602082028501613fcd85613ef1565b8060005b858110156140095784840389528151613fea8582613f85565b9450613ff583613f99565b925060208a01995050600181019050613fd1565b50829750879550505050505092915050565b600060e0830160008301516140336000860182613927565b506020830151848203602086015261404b8282613947565b91505060408301516140606040860182613df5565b5060608301516140736060860182613e04565b506080830151848203608086015261408b8282613e60565b91505060a083015184820360a08601526140a58282613e60565b91505060c083015184820360c08601526140bf8282613fa6565b9150508091505092915050565b600060208201905081810360008301526140e6818461401b565b905092915050565b600082825260208201905092915050565b600061410a82613ed5565b61411481856140ee565b93508360208202850161412685613ef1565b8060005b8581101561416257848403895281516141438582613f85565b945061414e83613f99565b925060208a0199505060018101905061412a565b50829750879550505050505092915050565b6000602082019050818103600083015261418e81846140ff565b905092915050565b60006020820190506141ab6000830184613657565b92915050565b7f4e487b7100000000000000000000000000000000000000000000000000000000600052602260045260246000fd5b600060028204905060018216806141f857607f821691505b60208210810361420b5761420a6141b1565b5b50919050565b7f56616c7565206d7573742062652067726561746572207468616e203021000000600082015250565b6000614247601d83613671565b915061425282614211565b602082019050919050565b600060208201905081810360008301526142768161423a565b9050919050565b7f50617469656e742068617320616c726561647920726567697374657265642100600082015250565b60006142b3601f83613671565b91506142be8261427d565b602082019050919050565b600060208201905081810360008301526142e2816142a6565b9050919050565b600082905092915050565b7f4e487b7100000000000000000000000000000000000000000000000000000000600052604160045260246000fd5b60008190508160005260206000209050919050565b60006020601f8301049050919050565b600082821b905092915050565b6000600883026143857fffffffffffffffffffffffffffffffffffffffffffffffffffffffffffffffff82614348565b61438f8683614348565b95508019841693508086168417925050509392505050565b6000819050919050565b60006143cc6143c76143c284613533565b6143a7565b613533565b9050919050565b6000819050919050565b6143e6836143b1565b6143fa6143f2826143d3565b848454614355565b825550505050565b600090565b61440f614402565b61441a8184846143dd565b505050565b5b8181101561443e57614433600082614407565b600181019050614420565b5050565b601f8211156144835761445481614323565b61445d84614338565b8101602085101561446c578190505b61448061447885614338565b83018261441f565b50505b505050565b600082821c905092915050565b60006144a660001984600802614488565b1980831691505092915050565b60006144bf8383614495565b9150826002028217905092915050565b6144d983836142e9565b67ffffffffffffffff8111156144f2576144f16142f4565b5b6144fc82546141e0565b614507828285614442565b6000601f8311600181146145365760008415614524578287013590505b61452e85826144b3565b865550614596565b601f19841661454486614323565b60005b8281101561456c57848901358255600182019150602085019450602081019050614547565b868310156145895784890135614585601f891682614495565b8355505b6001600288020188555050505b50505050505050565b6000815490506145ae816141e0565b9050919050565b8181036145c357505061469b565b6145cc8261459f565b67ffffffffffffffff8111156145e5576145e46142f4565b5b6145ef82546141e0565b6145fa828285614442565b6000601f8311600181146146295760008415614617578287015490505b61462185826144b3565b865550614694565b601f19841661463787614323565b965061464286614323565b60005b8281101561466a57848901548255600182019150600185019450602081019050614645565b868310156146875784890154614683601f891682614495565b8355505b6001600288020188555050505b5050505050505b565b7f4e487b7100000000000000000000000000000000000000000000000000000000600052601160045260246000fd5b60006146d782613533565b91507fffffffffffffffffffffffffffffffffffffffffffffffffffffffffffffffff82036147095761470861469d565b5b600182019050919050565b7f4e6f74206120646f63746f722100000000000000000000000000000000000000600082015250565b600061474a600d83613671565b915061475582614714565b602082019050919050565b600060208201905081810360008301526147798161473d565b9050919050565b7f446f63746f7220646f6573206e6f74206861766520617070726f76616c20746f60008201527f20747265617420746869732070617469656e7421000000000000000000000000602082015250565b60006147dc603483613671565b91506147e782614780565b604082019050919050565b6000602082019050818103600083015261480b816147cf565b9050919050565b7f4d656469636174696f6e206e6f74207265676973746572656421000000000000600082015250565b6000614848601a83613671565b915061485382614812565b602082019050919050565b600060208201905081810360008301526148778161483b565b9050919050565b7f4e6f7420612070617469656e7421000000000000000000000000000000000000600082015250565b60006148b4600e83613671565b91506148bf8261487e565b602082019050919050565b600060208201905081810360008301526148e3816148a7565b9050919050565b7f446f63746f722068617320616c72656164792072656769737465726564210000600082015250565b6000614920601e83613671565b915061492b826148ea565b602082019050919050565b6000602082019050818103600083015261494f81614913565b9050919050565b7f4d656469636174696f6e20616c72656164792072656769737465726564210000600082015250565b600061498c601e83613671565b915061499782614956565b602082019050919050565b600060208201905081810360008301526149bb8161497f565b9050919050565b6149cb82613666565b67ffffffffffffffff8111156149e4576149e36142f4565b5b6149ee82546141e0565b6149f9828285614442565b600060209050601f831160018114614a2c5760008415614a1a578287015190505b614a2485826144b3565b865550614a8c565b601f198416614a3a86614323565b60005b82811015614a6257848901518255600182019150602085019450602081019050614a3d565b86831015614a7f5784890151614a7b601f891682614495565b8355505b6001600288020188555050505b505050505050565b7f5468697320646f63746f72206973206e6f742072656769737465726564210000600082015250565b6000614aca601e83613671565b9150614ad582614a94565b602082019050919050565b60006020820190508181036000830152614af981614abd565b905091905056fea26469706673582212205eaf39559fe44888208ccfa001e2b93998ff5ea9612a0d1a3ecc6634f4ee421564736f6c63430008110033",
  "linkReferences": {},
  "deployedLinkReferences": {}
}